{
  "_format": "hh3-artifact-1",
  "contractName": "DataAnchor",
  "sourceName": "contracts/DataAnchor.sol",
  "abi": [
    {
      "inputs": [],
      "stateMutability": "nonpayable",
      "type": "constructor"
    },
    {
      "inputs": [],
      "name": "AccessControlBadConfirmation",
      "type": "error"
    },
    {
      "inputs": [
        {
          "internalType": "address",
          "name": "account",
          "type": "address"
        },
        {
          "internalType": "bytes32",
          "name": "neededRole",
          "type": "bytes32"
        }
      ],
      "name": "AccessControlUnauthorizedAccount",
      "type": "error"
    },
    {
      "inputs": [],
      "name": "BatchNotFound",
      "type": "error"
    },
    {
      "inputs": [],
      "name": "InvalidCIDHash",
      "type": "error"
    },
    {
      "inputs": [],
      "name": "InvalidDevice",
      "type": "error"
    },
    {
      "inputs": [],
      "name": "InvalidTimeWindow",
      "type": "error"
    },
    {
      "anonymous": false,
      "inputs": [
        {
          "indexed": true,
          "internalType": "uint256",
          "name": "batchId",
          "type": "uint256"
        },
        {
          "indexed": true,
          "internalType": "address",
          "name": "device",
          "type": "address"
        },
        {
          "indexed": false,
          "internalType": "bytes32",
          "name": "cidHash",
          "type": "bytes32"
        },
        {
          "indexed": false,
          "internalType": "uint64",
          "name": "windowStart",
          "type": "uint64"
        },
        {
          "indexed": false,
          "internalType": "uint64",
          "name": "windowEnd",
          "type": "uint64"
        },
        {
          "indexed": false,
          "internalType": "uint256",
          "name": "timestamp",
          "type": "uint256"
        },
        {
          "indexed": false,
          "internalType": "uint256",
          "name": "blockNumber",
          "type": "uint256"
        }
      ],
      "name": "BatchCommitted",
      "type": "event"
    },
    {
      "anonymous": false,
      "inputs": [
        {
          "indexed": true,
          "internalType": "bytes32",
          "name": "role",
          "type": "bytes32"
        },
        {
          "indexed": true,
          "internalType": "bytes32",
          "name": "previousAdminRole",
          "type": "bytes32"
        },
        {
          "indexed": true,
          "internalType": "bytes32",
          "name": "newAdminRole",
          "type": "bytes32"
        }
      ],
      "name": "RoleAdminChanged",
      "type": "event"
    },
    {
      "anonymous": false,
      "inputs": [
        {
          "indexed": true,
          "internalType": "bytes32",
          "name": "role",
          "type": "bytes32"
        },
        {
          "indexed": true,
          "internalType": "address",
          "name": "account",
          "type": "address"
        },
        {
          "indexed": true,
          "internalType": "address",
          "name": "sender",
          "type": "address"
        }
      ],
      "name": "RoleGranted",
      "type": "event"
    },
    {
      "anonymous": false,
      "inputs": [
        {
          "indexed": true,
          "internalType": "bytes32",
          "name": "role",
          "type": "bytes32"
        },
        {
          "indexed": true,
          "internalType": "address",
          "name": "account",
          "type": "address"
        },
        {
          "indexed": true,
          "internalType": "address",
          "name": "sender",
          "type": "address"
        }
      ],
      "name": "RoleRevoked",
      "type": "event"
    },
    {
      "inputs": [],
      "name": "DEFAULT_ADMIN_ROLE",
      "outputs": [
        {
          "internalType": "bytes32",
          "name": "",
          "type": "bytes32"
        }
      ],
      "stateMutability": "view",
      "type": "function"
    },
    {
      "inputs": [
        {
          "internalType": "uint256",
          "name": "",
          "type": "uint256"
        }
      ],
      "name": "batches",
      "outputs": [
        {
          "internalType": "address",
          "name": "device",
          "type": "address"
        },
        {
          "internalType": "bytes32",
          "name": "cidHash",
          "type": "bytes32"
        },
        {
          "internalType": "uint64",
          "name": "windowStart",
          "type": "uint64"
        },
        {
          "internalType": "uint64",
          "name": "windowEnd",
          "type": "uint64"
        },
        {
          "internalType": "uint256",
          "name": "timestamp",
          "type": "uint256"
        },
        {
          "internalType": "uint256",
          "name": "blockNumber",
          "type": "uint256"
        }
      ],
      "stateMutability": "view",
      "type": "function"
    },
    {
      "inputs": [
        {
          "internalType": "bytes32",
          "name": "",
          "type": "bytes32"
        }
      ],
      "name": "cidHashToBatch",
      "outputs": [
        {
          "internalType": "uint256",
          "name": "",
          "type": "uint256"
        }
      ],
      "stateMutability": "view",
      "type": "function"
    },
    {
      "inputs": [
        {
          "internalType": "address",
          "name": "device",
          "type": "address"
        },
        {
          "internalType": "bytes32",
          "name": "cidHash",
          "type": "bytes32"
        },
        {
          "internalType": "uint64",
          "name": "windowStart",
          "type": "uint64"
        },
        {
          "internalType": "uint64",
          "name": "windowEnd",
          "type": "uint64"
        }
      ],
      "name": "commitBatch",
      "outputs": [
        {
          "internalType": "uint256",
          "name": "",
          "type": "uint256"
        }
      ],
      "stateMutability": "nonpayable",
      "type": "function"
    },
    {
      "inputs": [
        {
          "internalType": "bytes32",
          "name": "",
          "type": "bytes32"
        }
      ],
      "name": "committedHashes",
      "outputs": [
        {
          "internalType": "bool",
          "name": "",
          "type": "bool"
        }
      ],
      "stateMutability": "view",
      "type": "function"
    },
    {
      "inputs": [
        {
          "internalType": "address",
          "name": "",
          "type": "address"
        },
        {
          "internalType": "uint256",
          "name": "",
          "type": "uint256"
        }
      ],
      "name": "deviceToBatches",
      "outputs": [
        {
          "internalType": "uint256",
          "name": "",
          "type": "uint256"
        }
      ],
      "stateMutability": "view",
      "type": "function"
    },
    {
      "inputs": [
        {
          "internalType": "uint256",
          "name": "batchId",
          "type": "uint256"
        }
      ],
      "name": "getBatch",
      "outputs": [
        {
          "components": [
            {
              "internalType": "address",
              "name": "device",
              "type": "address"
            },
            {
              "internalType": "bytes32",
              "name": "cidHash",
              "type": "bytes32"
            },
            {
              "internalType": "uint64",
              "name": "windowStart",
              "type": "uint64"
            },
            {
              "internalType": "uint64",
              "name": "windowEnd",
              "type": "uint64"
            },
            {
              "internalType": "uint256",
              "name": "timestamp",
              "type": "uint256"
            },
            {
              "internalType": "uint256",
              "name": "blockNumber",
              "type": "uint256"
            }
          ],
          "internalType": "struct DataAnchor.BatchCommitment",
          "name": "",
          "type": "tuple"
        }
      ],
      "stateMutability": "view",
      "type": "function"
    },
    {
      "inputs": [
        {
          "internalType": "address",
          "name": "device",
          "type": "address"
        }
      ],
      "name": "getBatchesByDevice",
      "outputs": [
        {
          "internalType": "uint256[]",
          "name": "",
          "type": "uint256[]"
        }
      ],
      "stateMutability": "view",
      "type": "function"
    },
    {
      "inputs": [
        {
          "internalType": "uint64",
          "name": "startTime",
          "type": "uint64"
        },
        {
          "internalType": "uint64",
          "name": "endTime",
          "type": "uint64"
        }
      ],
      "name": "getBatchesByTimeRange",
      "outputs": [
        {
          "internalType": "uint256[]",
          "name": "",
          "type": "uint256[]"
        }
      ],
      "stateMutability": "view",
      "type": "function"
    },
    {
      "inputs": [
        {
          "internalType": "address",
          "name": "device",
          "type": "address"
        }
      ],
      "name": "getDeviceBatchCount",
      "outputs": [
        {
          "internalType": "uint256",
          "name": "",
          "type": "uint256"
        }
      ],
      "stateMutability": "view",
      "type": "function"
    },
    {
      "inputs": [
        {
          "internalType": "address",
          "name": "device",
          "type": "address"
        }
      ],
      "name": "getLatestBatch",
      "outputs": [
        {
          "internalType": "uint256",
          "name": "batchId",
          "type": "uint256"
        },
        {
          "components": [
            {
              "internalType": "address",
              "name": "device",
              "type": "address"
            },
            {
              "internalType": "bytes32",
              "name": "cidHash",
              "type": "bytes32"
            },
            {
              "internalType": "uint64",
              "name": "windowStart",
              "type": "uint64"
            },
            {
              "internalType": "uint64",
              "name": "windowEnd",
              "type": "uint64"
            },
            {
              "internalType": "uint256",
              "name": "timestamp",
              "type": "uint256"
            },
            {
              "internalType": "uint256",
              "name": "blockNumber",
              "type": "uint256"
            }
          ],
          "internalType": "struct DataAnchor.BatchCommitment",
          "name": "commitment",
          "type": "tuple"
        }
      ],
      "stateMutability": "view",
      "type": "function"
    },
    {
      "inputs": [
        {
          "internalType": "bytes32",
          "name": "role",
          "type": "bytes32"
        }
      ],
      "name": "getRoleAdmin",
      "outputs": [
        {
          "internalType": "bytes32",
          "name": "",
          "type": "bytes32"
        }
      ],
      "stateMutability": "view",
      "type": "function"
    },
    {
      "inputs": [],
      "name": "getTotalBatches",
      "outputs": [
        {
          "internalType": "uint256",
          "name": "",
          "type": "uint256"
        }
      ],
      "stateMutability": "view",
      "type": "function"
    },
    {
      "inputs": [
        {
          "internalType": "bytes32",
          "name": "role",
          "type": "bytes32"
        },
        {
          "internalType": "address",
          "name": "account",
          "type": "address"
        }
      ],
      "name": "grantRole",
      "outputs": [],
      "stateMutability": "nonpayable",
      "type": "function"
    },
    {
      "inputs": [
        {
          "internalType": "bytes32",
          "name": "role",
          "type": "bytes32"
        },
        {
          "internalType": "address",
          "name": "account",
          "type": "address"
        }
      ],
      "name": "hasRole",
      "outputs": [
        {
          "internalType": "bool",
          "name": "",
          "type": "bool"
        }
      ],
      "stateMutability": "view",
      "type": "function"
    },
    {
      "inputs": [
        {
          "internalType": "bytes32",
          "name": "role",
          "type": "bytes32"
        },
        {
          "internalType": "address",
          "name": "callerConfirmation",
          "type": "address"
        }
      ],
      "name": "renounceRole",
      "outputs": [],
      "stateMutability": "nonpayable",
      "type": "function"
    },
    {
      "inputs": [
        {
          "internalType": "bytes32",
          "name": "role",
          "type": "bytes32"
        },
        {
          "internalType": "address",
          "name": "account",
          "type": "address"
        }
      ],
      "name": "revokeRole",
      "outputs": [],
      "stateMutability": "nonpayable",
      "type": "function"
    },
    {
      "inputs": [
        {
          "internalType": "bytes4",
          "name": "interfaceId",
          "type": "bytes4"
        }
      ],
      "name": "supportsInterface",
      "outputs": [
        {
          "internalType": "bool",
          "name": "",
          "type": "bool"
        }
      ],
      "stateMutability": "view",
      "type": "function"
    },
    {
      "inputs": [
        {
          "internalType": "bytes32",
          "name": "cidHash",
          "type": "bytes32"
        }
      ],
      "name": "verifyCIDHash",
      "outputs": [
        {
          "internalType": "bool",
          "name": "committed",
          "type": "bool"
        },
        {
          "internalType": "uint256",
          "name": "batchId",
          "type": "uint256"
        }
      ],
      "stateMutability": "view",
      "type": "function"
    }
  ],
  "bytecode": "0x608060405234801561001057600080fd5b5061001c600033610022565b506100ce565b6000828152602081815260408083206001600160a01b038516845290915281205460ff166100c4576000838152602081815260408083206001600160a01b03861684529091529020805460ff1916600117905561007c3390565b6001600160a01b0316826001600160a01b0316847f2f8788117e7eff1d82e926ec794901d17c78024a50270940304540a733656f0d60405160405180910390a45060016100c8565b5060005b92915050565b6110b9806100dd6000396000f3fe608060405234801561001057600080fd5b50600436106101215760003560e01c806376a7bea3116100ad578063a344784611610071578063a3447846146102cc578063b32c4d8d146102df578063d547741f14610336578063e561dddc14610349578063f340a44d1461035157600080fd5b806376a7bea31461023e5780638967c3391461026757806390c4c5fd1461029157806391d14854146102b1578063a217fddf146102c457600080fd5b80632f2ff15d116100f45780632f2ff15d146101c3578063300217d7146101d857806336568abe146101eb57806346773b36146101fe5780635ac442821461021e57600080fd5b806301ffc9a714610126578063088ab7971461014e578063248a9ca31461016f578063260904a2146101a0575b600080fd5b610139610134366004610df9565b610364565b60405190151581526020015b60405180910390f35b61016161015c366004610e46565b61039b565b604051610145929190610eb2565b61019261017d366004610ec6565b60009081526020819052604090206001015490565b604051908152602001610145565b6101396101ae366004610ec6565b60046020526000908152604090205460ff1681565b6101d66101d1366004610edf565b610503565b005b6101926101e6366004610f22565b61052e565b6101d66101f9366004610edf565b6107e9565b61021161020c366004610f6f565b610821565b6040516101459190610f99565b61023161022c366004610ec6565b610a59565b6040516101459190610fdd565b61019261024c366004610e46565b6001600160a01b031660009081526002602052604090205490565b61027a610275366004610ec6565b610b35565b604080519215158352602083019190915201610145565b61019261029f366004610ec6565b60036020526000908152604090205481565b6101396102bf366004610edf565b610b64565b610192600081565b6101926102da366004610feb565b610b8d565b6102f26102ed366004610ec6565b610bbe565b604080516001600160a01b03909716875260208701959095526001600160401b039384169486019490945291166060840152608083015260a082015260c001610145565b6101d6610344366004610edf565b610c1d565b600154610192565b61021161035f366004610e46565b610c42565b60006001600160e01b03198216637965db0b60e01b148061039557506301ffc9a760e01b6001600160e01b03198316145b92915050565b6040805160c08101825260008082526020808301829052828401829052606083018290526080830182905260a083018290526001600160a01b038516825260028152838220805485518184028101840190965280865292948593909283018282801561042657602002820191906000526020600020905b815481526020019060010190808311610412575b50505050509050805160000361044f57604051632785786f60e21b815260040160405180910390fd5b806001825161045e919061102b565b8151811061046e5761046e61103e565b602002602001015192506001838154811061048b5761048b61103e565b60009182526020918290206040805160c081018252600590930290910180546001600160a01b0316835260018101549383019390935260028301546001600160401b0380821692840192909252600160401b90041660608201526003820154608082015260049091015460a082015292949293505050565b60008281526020819052604090206001015461051e81610cae565b6105288383610cbb565b50505050565b60008061053a81610cae565b6001600160a01b03861661056157604051632d64aeef60e21b815260040160405180910390fd5b8461057f5760405163785fd58d60e11b815260040160405180910390fd5b836001600160401b0316836001600160401b0316116105b15760405163b11cd48160e01b815260040160405180910390fd5b6000600180549050905060006040518060c00160405280896001600160a01b03168152602001888152602001876001600160401b03168152602001866001600160401b03168152602001428152602001438152509050600181908060018154018082558091505060019003906000526020600020906005020160009091909190915060008201518160000160006101000a8154816001600160a01b0302191690836001600160a01b031602179055506020820151816001015560408201518160020160006101000a8154816001600160401b0302191690836001600160401b0316021790555060608201518160020160086101000a8154816001600160401b0302191690836001600160401b031602179055506080820151816003015560a08201518160040155505060026000896001600160a01b03166001600160a01b0316815260200190815260200160002082908060018154018082558091505060019003906000526020600020016000909190919091505581600360008981526020019081526020016000208190555060016004600089815260200190815260200160002060006101000a81548160ff021916908315150217905550876001600160a01b0316827f409c89f50c19923ecca4764126821178550337dda7c63cd64dde6c95ec846f9989898942436040516107d69594939291909485526001600160401b0393841660208601529190921660408401526060830191909152608082015260a00190565b60405180910390a3509695505050505050565b6001600160a01b03811633146108125760405163334bd91960e11b815260040160405180910390fd5b61081c8282610d4d565b505050565b60606000805b600154811015610906576000600182815481106108465761084661103e565b60009182526020918290206040805160c081018252600590930290910180546001600160a01b0316835260018101549383019390935260028301546001600160401b03808216928401839052600160401b909104811660608401526003840154608084015260049093015460a0830152909250908616108015906108e05750856001600160401b031681606001516001600160401b031610155b156108f357826108ef81611054565b9350505b50806108fe81611054565b915050610827565b506000816001600160401b038111156109215761092161106d565b60405190808252806020026020018201604052801561094a578160200160208202803683370190505b5090506000805b600154811015610a4e576000600182815481106109705761097061103e565b60009182526020918290206040805160c081018252600590930290910180546001600160a01b0316835260018101549383019390935260028301546001600160401b03808216928401839052600160401b909104811660608401526003840154608084015260049093015460a083015290925090881610801590610a0a5750876001600160401b031681606001516001600160401b031610155b15610a3b5781848481518110610a2257610a2261103e565b602090810291909101015282610a3781611054565b9350505b5080610a4681611054565b915050610951565b509095945050505050565b6040805160c081018252600080825260208201819052918101829052606081018290526080810182905260a08101919091526001548210610aad57604051632785786f60e21b815260040160405180910390fd5b60018281548110610ac057610ac061103e565b60009182526020918290206040805160c081018252600590930290910180546001600160a01b0316835260018101549383019390935260028301546001600160401b0380821692840192909252600160401b90041660608201526003820154608082015260049091015460a082015292915050565b60008181526004602052604081205460ff16908115610b5f57506000828152600360205260409020545b915091565b6000918252602082815260408084206001600160a01b0393909316845291905290205460ff1690565b60026020528160005260406000208181548110610ba957600080fd5b90600052602060002001600091509150505481565b60018181548110610bce57600080fd5b6000918252602090912060059091020180546001820154600283015460038401546004909401546001600160a01b03909316945090926001600160401b0380831693600160401b909304169186565b600082815260208190526040902060010154610c3881610cae565b6105288383610d4d565b6001600160a01b038116600090815260026020908152604091829020805483518184028101840190945280845260609392830182828015610ca257602002820191906000526020600020905b815481526020019060010190808311610c8e575b50505050509050919050565b610cb88133610db8565b50565b6000610cc78383610b64565b610d45576000838152602081815260408083206001600160a01b03861684529091529020805460ff19166001179055610cfd3390565b6001600160a01b0316826001600160a01b0316847f2f8788117e7eff1d82e926ec794901d17c78024a50270940304540a733656f0d60405160405180910390a4506001610395565b506000610395565b6000610d598383610b64565b15610d45576000838152602081815260408083206001600160a01b0386168085529252808320805460ff1916905551339286917ff6391f5c32d9c69d2a47ea670b442974b53935d1edc7fd64eb21e047a839171b9190a4506001610395565b610dc28282610b64565b610df55760405163e2517d3f60e01b81526001600160a01b03821660048201526024810183905260440160405180910390fd5b5050565b600060208284031215610e0b57600080fd5b81356001600160e01b031981168114610e2357600080fd5b9392505050565b80356001600160a01b0381168114610e4157600080fd5b919050565b600060208284031215610e5857600080fd5b610e2382610e2a565b60018060a01b0381511682526020810151602083015260408101516001600160401b03808216604085015280606084015116606085015250506080810151608083015260a081015160a08301525050565b82815260e08101610e236020830184610e61565b600060208284031215610ed857600080fd5b5035919050565b60008060408385031215610ef257600080fd5b82359150610f0260208401610e2a565b90509250929050565b80356001600160401b0381168114610e4157600080fd5b60008060008060808587031215610f3857600080fd5b610f4185610e2a565b935060208501359250610f5660408601610f0b565b9150610f6460608601610f0b565b905092959194509250565b60008060408385031215610f8257600080fd5b610f8b83610f0b565b9150610f0260208401610f0b565b6020808252825182820181905260009190848201906040850190845b81811015610fd157835183529284019291840191600101610fb5565b50909695505050505050565b60c081016103958284610e61565b60008060408385031215610ffe57600080fd5b61100783610e2a565b946020939093013593505050565b634e487b7160e01b600052601160045260246000fd5b8181038181111561039557610395611015565b634e487b7160e01b600052603260045260246000fd5b60006001820161106657611066611015565b5060010190565b634e487b7160e01b600052604160045260246000fdfea264697066735822122099a4812c12a2543831036a5158ab6616ba6cd8285243d0023166691606972eec64736f6c63430008140033",
  "linkReferences": {},
  "deployedLinkReferences": {},
  "immutableReferences": {},
  "inputSourceName": "project/contracts/DataAnchor.sol",
  "buildInfoId": "solc-0_8_20-657f68d04870aa19b72ec52609b2272999bccb38"
}