{"abi":[{"type":"constructor","inputs":[],"stateMutability":"nonpayable"},{"type":"function","name":"DEFAULT_ADMIN_ROLE","inputs":[],"outputs":[{"name":"","type":"bytes32","internalType":"bytes32"}],"stateMutability":"view"},{"type":"function","name":"DEVICE_ROLE","inputs":[],"outputs":[{"name":"","type":"bytes32","internalType":"bytes32"}],"stateMutability":"view"},{"type":"function","name":"FARMER_ROLE","inputs":[],"outputs":[{"name":"","type":"bytes32","internalType":"bytes32"}],"stateMutability":"view"},{"type":"function","name":"RESEARCHER_ROLE","inputs":[],"outputs":[{"name":"","type":"bytes32","internalType":"bytes32"}],"stateMutability":"view"},{"type":"function","name":"SUPPLY_CHAIN_ROLE","inputs":[],"outputs":[{"name":"","type":"bytes32","internalType":"bytes32"}],"stateMutability":"view"},{"type":"function","name":"cropEvents","inputs":[{"name":"","type":"uint256","internalType":"uint256"}],"outputs":[{"name":"farmId","type":"uint256","internalType":"uint256"},{"name":"eventType","type":"string","internalType":"string"},{"name":"timestamp","type":"uint256","internalType":"uint256"},{"name":"notes","type":"string","internalType":"string"},{"name":"linkedDataHash","type":"bytes32","internalType":"bytes32"}],"stateMutability":"view"},{"type":"function","name":"dataHashes","inputs":[{"name":"","type":"bytes32","internalType":"bytes32"}],"outputs":[{"name":"","type":"bool","internalType":"bool"}],"stateMutability":"view"},{"type":"function","name":"farmToCropEvents","inputs":[{"name":"","type":"uint256","internalType":"uint256"},{"name":"","type":"uint256","internalType":"uint256"}],"outputs":[{"name":"","type":"uint256","internalType":"uint256"}],"stateMutability":"view"},{"type":"function","name":"farmToReadings","inputs":[{"name":"","type":"uint256","internalType":"uint256"},{"name":"","type":"uint256","internalType":"uint256"}],"outputs":[{"name":"","type":"uint256","internalType":"uint256"}],"stateMutability":"view"},{"type":"function","name":"getCropEventsByFarm","inputs":[{"name":"farmId","type":"uint256","internalType":"uint256"}],"outputs":[{"name":"","type":"uint256[]","internalType":"uint256[]"}],"stateMutability":"view"},{"type":"function","name":"getReadingsByFarm","inputs":[{"name":"farmId","type":"uint256","internalType":"uint256"}],"outputs":[{"name":"","type":"uint256[]","internalType":"uint256[]"}],"stateMutability":"view"},{"type":"function","name":"getRoleAdmin","inputs":[{"name":"role","type":"bytes32","internalType":"bytes32"}],"outputs":[{"name":"","type":"bytes32","internalType":"bytes32"}],"stateMutability":"view"},{"type":"function","name":"getSupplyChainStages","inputs":[{"name":"productId","type":"uint256","internalType":"uint256"}],"outputs":[{"name":"","type":"uint256[]","internalType":"uint256[]"}],"stateMutability":"view"},{"type":"function","name":"getTotalCropEvents","inputs":[],"outputs":[{"name":"","type":"uint256","internalType":"uint256"}],"stateMutability":"view"},{"type":"function","name":"getTotalReadings","inputs":[],"outputs":[{"name":"","type":"uint256","internalType":"uint256"}],"stateMutability":"view"},{"type":"function","name":"getTotalSupplyChainStages","inputs":[],"outputs":[{"name":"","type":"uint256","internalType":"uint256"}],"stateMutability":"view"},{"type":"function","name":"grantRole","inputs":[{"name":"role","type":"bytes32","internalType":"bytes32"},{"name":"account","type":"address","internalType":"address"}],"outputs":[],"stateMutability":"nonpayable"},{"type":"function","name":"hasRole","inputs":[{"name":"role","type":"bytes32","internalType":"bytes32"},{"name":"account","type":"address","internalType":"address"}],"outputs":[{"name":"","type":"bool","internalType":"bool"}],"stateMutability":"view"},{"type":"function","name":"productToStages","inputs":[{"name":"","type":"uint256","internalType":"uint256"},{"name":"","type":"uint256","internalType":"uint256"}],"outputs":[{"name":"","type":"uint256","internalType":"uint256"}],"stateMutability":"view"},{"type":"function","name":"readings","inputs":[{"name":"","type":"uint256","internalType":"uint256"}],"outputs":[{"name":"timestamp","type":"uint256","internalType":"uint256"},{"name":"deviceId","type":"address","internalType":"address"},{"name":"farmId","type":"uint256","internalType":"uint256"},{"name":"temperature","type":"int16","internalType":"int16"},{"name":"soilMoisture","type":"uint16","internalType":"uint16"},{"name":"humidity","type":"uint16","internalType":"uint16"},{"name":"dataHash","type":"bytes32","internalType":"bytes32"}],"stateMutability":"view"},{"type":"function","name":"recordCropEvent","inputs":[{"name":"farmId","type":"uint256","internalType":"uint256"},{"name":"eventType","type":"string","internalType":"string"},{"name":"notes","type":"string","internalType":"string"},{"name":"linkedDataHash","type":"bytes32","internalType":"bytes32"}],"outputs":[],"stateMutability":"nonpayable"},{"type":"function","name":"recordSupplyChainStage","inputs":[{"name":"productId","type":"uint256","internalType":"uint256"},{"name":"stage","type":"string","internalType":"string"},{"name":"location","type":"string","internalType":"string"},{"name":"linkedDataHash","type":"bytes32","internalType":"bytes32"}],"outputs":[],"stateMutability":"nonpayable"},{"type":"function","name":"renounceRole","inputs":[{"name":"role","type":"bytes32","internalType":"bytes32"},{"name":"callerConfirmation","type":"address","internalType":"address"}],"outputs":[],"stateMutability":"nonpayable"},{"type":"function","name":"revokeRole","inputs":[{"name":"role","type":"bytes32","internalType":"bytes32"},{"name":"account","type":"address","internalType":"address"}],"outputs":[],"stateMutability":"nonpayable"},{"type":"function","name":"submitBatch","inputs":[{"name":"farmIds","type":"uint256[]","internalType":"uint256[]"},{"name":"temperatures","type":"int16[]","internalType":"int16[]"},{"name":"moistures","type":"uint16[]","internalType":"uint16[]"},{"name":"humidities","type":"uint16[]","internalType":"uint16[]"}],"outputs":[],"stateMutability":"nonpayable"},{"type":"function","name":"submitSensorData","inputs":[{"name":"farmId","type":"uint256","internalType":"uint256"},{"name":"temperature","type":"int16","internalType":"int16"},{"name":"soilMoisture","type":"uint16","internalType":"uint16"},{"name":"humidity","type":"uint16","internalType":"uint16"}],"outputs":[],"stateMutability":"nonpayable"},{"type":"function","name":"supplyChainStages","inputs":[{"name":"","type":"uint256","internalType":"uint256"}],"outputs":[{"name":"productId","type":"uint256","internalType":"uint256"},{"name":"stage","type":"string","internalType":"string"},{"name":"timestamp","type":"uint256","internalType":"uint256"},{"name":"recorder","type":"address","internalType":"address"},{"name":"location","type":"string","internalType":"string"},{"name":"linkedDataHash","type":"bytes32","internalType":"bytes32"}],"stateMutability":"view"},{"type":"function","name":"supportsInterface","inputs":[{"name":"interfaceId","type":"bytes4","internalType":"bytes4"}],"outputs":[{"name":"","type":"bool","internalType":"bool"}],"stateMutability":"view"},{"type":"function","name":"verifyReading","inputs":[{"name":"readingId","type":"uint256","internalType":"uint256"}],"outputs":[{"name":"valid","type":"bool","internalType":"bool"},{"name":"storedHash","type":"bytes32","internalType":"bytes32"}],"stateMutability":"view"},{"type":"event","name":"AnomalyDetected","inputs":[{"name":"readingId","type":"uint256","indexed":true,"internalType":"uint256"},{"name":"deviceId","type":"address","indexed":true,"internalType":"address"},{"name":"anomalyType","type":"string","indexed":false,"internalType":"string"}],"anonymous":false},{"type":"event","name":"CropEventRecorded","inputs":[{"name":"eventId","type":"uint256","indexed":true,"internalType":"uint256"},{"name":"farmId","type":"uint256","indexed":true,"internalType":"uint256"},{"name":"eventType","type":"string","indexed":false,"internalType":"string"},{"name":"timestamp","type":"uint256","indexed":false,"internalType":"uint256"}],"anonymous":false},{"type":"event","name":"RoleAdminChanged","inputs":[{"name":"role","type":"bytes32","indexed":true,"internalType":"bytes32"},{"name":"previousAdminRole","type":"bytes32","indexed":true,"internalType":"bytes32"},{"name":"newAdminRole","type":"bytes32","indexed":true,"internalType":"bytes32"}],"anonymous":false},{"type":"event","name":"RoleGranted","inputs":[{"name":"role","type":"bytes32","indexed":true,"internalType":"bytes32"},{"name":"account","type":"address","indexed":true,"internalType":"address"},{"name":"sender","type":"address","indexed":true,"internalType":"address"}],"anonymous":false},{"type":"event","name":"RoleRevoked","inputs":[{"name":"role","type":"bytes32","indexed":true,"internalType":"bytes32"},{"name":"account","type":"address","indexed":true,"internalType":"address"},{"name":"sender","type":"address","indexed":true,"internalType":"address"}],"anonymous":false},{"type":"event","name":"SensorDataSubmitted","inputs":[{"name":"readingId","type":"uint256","indexed":true,"internalType":"uint256"},{"name":"deviceId","type":"address","indexed":true,"internalType":"address"},{"name":"farmId","type":"uint256","indexed":true,"internalType":"uint256"},{"name":"timestamp","type":"uint256","indexed":false,"internalType":"uint256"}],"anonymous":false},{"type":"event","name":"SupplyChainStageRecorded","inputs":[{"name":"stageId","type":"uint256","indexed":true,"internalType":"uint256"},{"name":"productId","type":"uint256","indexed":true,"internalType":"uint256"},{"name":"stage","type":"string","indexed":false,"internalType":"string"},{"name":"timestamp","type":"uint256","indexed":false,"internalType":"uint256"}],"anonymous":false},{"type":"error","name":"AccessControlBadConfirmation","inputs":[]},{"type":"error","name":"AccessControlUnauthorizedAccount","inputs":[{"name":"account","type":"address","internalType":"address"},{"name":"neededRole","type":"bytes32","internalType":"bytes32"}]},{"type":"error","name":"ArrayLengthMismatch","inputs":[]},{"type":"error","name":"DuplicateDataHash","inputs":[]},{"type":"error","name":"InvalidSensorData","inputs":[]},{"type":"error","name":"ReadingNotFound","inputs":[]},{"type":"error","name":"UnauthorizedDevice","inputs":[]}],"bytecode":{"object":"0x608060405234801562000010575f80fd5b506200001d5f33620000d8565b506200004a7f48404ec5122cfef2c4b0b727fa211cfb1e815e1b19d5c56f7d3cc0c616120a2833620000d8565b50620000777f7c6181838a71a779e445600d4c6ecbe16bacf2b3c5bda69c29fada66d1b645d133620000d8565b50620000a47f7765bfe615aab9fb9a16bd4c5c9b353f39dae79ca7da86094b0a74ea8a89e59a33620000d8565b50620000d17f9fdd832c63a06cff8edefff7231d8026fd177377608db1841f7c881716ea19bc33620000d8565b5062000184565b5f828152602081815260408083206001600160a01b038516845290915281205460ff166200017b575f838152602081815260408083206001600160a01b03861684529091529020805460ff19166001179055620001323390565b6001600160a01b0316826001600160a01b0316847f2f8788117e7eff1d82e926ec794901d17c78024a50270940304540a733656f0d60405160405180910390a45060016200017e565b505f5b92915050565b611eea80620001925f395ff3fe608060405234801561000f575f80fd5b50600436106101c6575f3560e01c806388c36035116100fe578063b0e26d701161009e578063f24cb0341161006e578063f24cb03414610471578063f394397014610498578063faf1fba6146104bf578063fda7503b146104d2575f80fd5b8063b0e26d70146103b8578063d547741f146103df578063d5da886d146103f2578063f2410ef71461044c575f80fd5b806391d14854116100d957806391d1485414610361578063a217fddf14610374578063a9bf74191461037b578063aaf107521461038e575f80fd5b806388c36035146103245780638e07dd94146103375780638ea768fe1461033f575f80fd5b806350f2aab3116101695780636ed71357116101445780636ed71357146102ee57806372067fe9146102f6578063776cce9014610309578063864b648514610311575f80fd5b806350f2aab31461029457806356c70ed6146102bb57806358cfe812146102ce575f80fd5b8063248a9ca3116101a4578063248a9ca31461021a5780632f2ff15d1461024a57806336568abe1461025d5780634688f7db14610270575f80fd5b806301ffc9a7146101ca5780630d8d976c146101f25780630faa74e514610207575b5f80fd5b6101dd6101d83660046118f9565b6104e5565b60405190151581526020015b60405180910390f35b61020561020036600461196f565b61051b565b005b610205610215366004611a68565b610a10565b61023c610228366004611ae4565b5f9081526020819052604090206001015490565b6040519081526020016101e9565b610205610258366004611afb565b610b9e565b61020561026b366004611afb565b610bc8565b61028361027e366004611ae4565b610c00565b6040516101e9959493929190611b77565b61023c7f7765bfe615aab9fb9a16bd4c5c9b353f39dae79ca7da86094b0a74ea8a89e59a81565b61023c6102c9366004611bba565b610d4c565b6102e16102dc366004611ae4565b610d77565b6040516101e99190611bda565b60015461023c565b6102e1610304366004611ae4565b610dd6565b60035461023c565b61020561031f366004611c44565b610e33565b610205610332366004611a68565b611118565b60025461023c565b6101dd61034d366004611ae4565b60046020525f908152604090205460ff1681565b6101dd61036f366004611afb565b6112c6565b61023c5f81565b6102e1610389366004611ae4565b6112ee565b6103a161039c366004611ae4565b61134b565b6040805192151583526020830191909152016101e9565b61023c7f48404ec5122cfef2c4b0b727fa211cfb1e815e1b19d5c56f7d3cc0c616120a2881565b6102056103ed366004611afb565b611412565b610405610400366004611ae4565b611436565b604080519788526001600160a01b0390961660208801529486019390935260019190910b606085015261ffff90811660808501521660a083015260c082015260e0016101e9565b61045f61045a366004611ae4565b61149b565b6040516101e996959493929190611c8e565b61023c7f9fdd832c63a06cff8edefff7231d8026fd177377608db1841f7c881716ea19bc81565b61023c7f7c6181838a71a779e445600d4c6ecbe16bacf2b3c5bda69c29fada66d1b645d181565b61023c6104cd366004611bba565b6115fb565b61023c6104e0366004611bba565b611614565b5f6001600160e01b03198216637965db0b60e01b148061051557506301ffc9a760e01b6001600160e01b03198316145b92915050565b7f48404ec5122cfef2c4b0b727fa211cfb1e815e1b19d5c56f7d3cc0c616120a286105458161162d565b8786811415806105555750808514155b806105605750808314155b1561057e5760405163512509d360e11b815260040160405180910390fd5b5f5b81811015610a03576103e887878381811061059d5761059d611ce2565b90506020020160208101906105b29190611cf6565b61ffff1611806105ed57506103e88585838181106105d2576105d2611ce2565b90506020020160208101906105e79190611cf6565b61ffff16115b1561060b5760405163043e24f760e51b815260040160405180910390fd5b5f42338d8d8581811061062057610620611ce2565b905060200201358c8c8681811061063957610639611ce2565b905060200201602081019061064e9190611d0f565b8b8b8781811061066057610660611ce2565b90506020020160208101906106759190611cf6565b8a8a8881811061068757610687611ce2565b905060200201602081019061069c9190611cf6565b87604051602001610704979695949392919096875260609590951b6bffffffffffffffffffffffff19166020870152603486019390935260f091821b6054860152811b6001600160f01b0319908116605686015291901b166058830152605a820152607a0190565b60408051601f1981840301815291815281516020928301205f818152600490935291205490915060ff161561074c57604051632ca15f0960e01b815260040160405180910390fd5b5f81815260046020908152604091829020805460ff191660019081179091558054835160e08101855242815233938101939093529290919081018f8f8781811061079857610798611ce2565b9050602002013581526020018d8d878181106107b6576107b6611ce2565b90506020020160208101906107cb9190611d0f565b60010b81526020018b8b878181106107e5576107e5611ce2565b90506020020160208101906107fa9190611cf6565b61ffff16815260200189898781811061081557610815611ce2565b905060200201602081019061082a9190611cf6565b61ffff908116825260209182018690528354600181810186555f958652838620855160059384029091019081559385015190840180546001600160a01b039092166001600160a01b0319909216919091179055604084015160028401556060840151600384018054608087015160a088015186166401000000000265ffff0000000019918716620100000263ffffffff19909316949096169390931717919091169290921790915560c090920151600490910155908e8e868181106108f1576108f1611ce2565b60209081029290920135835250818101929092526040015f9081208054600181018255908252919020018190558c8c8481811061093057610930611ce2565b90506020020135336001600160a01b0316827fd1ffbc628ab31d410540a5216a77617b6437dd8315e6d6eb848dc25b4825e4004260405161097391815260200190565b60405180910390a46109f9818c8c8681811061099157610991611ce2565b90506020020160208101906109a69190611d0f565b8b8b878181106109b8576109b8611ce2565b90506020020160208101906109cd9190611cf6565b8a8a888181106109df576109df611ce2565b90506020020160208101906109f49190611cf6565b61163a565b5050600101610580565b5050505050505050505050565b7f7c6181838a71a779e445600d4c6ecbe16bacf2b3c5bda69c29fada66d1b645d1610a3a8161162d565b5f600280549050905060026040518060a001604052808a815260200189898080601f0160208091040260200160405190810160405280939291908181526020018383808284375f920191909152505050908252504260208083019190915260408051601f8a0183900483028101830182528981529201919089908990819084018382808284375f9201829052509385525050506020918201879052835460018181018655948252908290208351600590920201908155908201519192909190820190610b069082611dc1565b506040820151600282015560608201516003820190610b259082611dc1565b50608091909101516004909101555f8881526006602090815260408083208054600181018255908452919092200182905551889082907fb414845a4cb1995a4700e6ebfd4967cd28d1ab8c31461aa6da72fefc4cd720a690610b8c908b908b904290611e7d565b60405180910390a35050505050505050565b5f82815260208190526040902060010154610bb88161162d565b610bc283836117c0565b50505050565b6001600160a01b0381163314610bf15760405163334bd91960e11b815260040160405180910390fd5b610bfb828261184f565b505050565b60028181548110610c0f575f80fd5b5f9182526020909120600590910201805460018201805491935090610c3390611d3c565b80601f0160208091040260200160405190810160405280929190818152602001828054610c5f90611d3c565b8015610caa5780601f10610c8157610100808354040283529160200191610caa565b820191905f5260205f20905b815481529060010190602001808311610c8d57829003601f168201915b505050505090806002015490806003018054610cc590611d3c565b80601f0160208091040260200160405190810160405280929190818152602001828054610cf190611d3c565b8015610d3c5780601f10610d1357610100808354040283529160200191610d3c565b820191905f5260205f20905b815481529060010190602001808311610d1f57829003601f168201915b5050505050908060040154905085565b6007602052815f5260405f208181548110610d65575f80fd5b905f5260205f20015f91509150505481565b5f81815260056020908152604091829020805483518184028101840190945280845260609392830182828015610dca57602002820191905f5260205f20905b815481526020019060010190808311610db6575b50505050509050919050565b5f81815260076020908152604091829020805483518184028101840190945280845260609392830182828015610dca57602002820191905f5260205f2090815481526020019060010190808311610db65750505050509050919050565b7f48404ec5122cfef2c4b0b727fa211cfb1e815e1b19d5c56f7d3cc0c616120a28610e5d8161162d565b6103e88361ffff161180610e7657506103e88261ffff16115b15610e945760405163043e24f760e51b815260040160405180910390fd5b604080514260208201526bffffffffffffffffffffffff193360601b16918101919091526054810186905260f085811b60748301526001600160f01b031985821b811660768401529084901b1660788201525f90607a0160408051601f1981840301815291815281516020928301205f818152600490935291205490915060ff1615610f3357604051632ca15f0960e01b815260040160405180910390fd5b600160045f8381526020019081526020015f205f6101000a81548160ff0219169083151502179055505f600180549050905060016040518060e00160405280428152602001336001600160a01b031681526020018981526020018860010b81526020018761ffff1681526020018661ffff16815260200184815250908060018154018082558091505060019003905f5260205f2090600502015f909190919091505f820151815f01556020820151816001015f6101000a8154816001600160a01b0302191690836001600160a01b03160217905550604082015181600201556060820151816003015f6101000a81548161ffff021916908360010b61ffff16021790555060808201518160030160026101000a81548161ffff021916908361ffff16021790555060a08201518160030160046101000a81548161ffff021916908361ffff16021790555060c08201518160040155505060055f8881526020019081526020015f2081908060018154018082558091505060019003905f5260205f20015f909190919091505586336001600160a01b0316827fd1ffbc628ab31d410540a5216a77617b6437dd8315e6d6eb848dc25b4825e400426040516110fb91815260200190565b60405180910390a461110f8187878761163a565b50505050505050565b7f9fdd832c63a06cff8edefff7231d8026fd177377608db1841f7c881716ea19bc6111428161162d565b5f600380549050905060036040518060c001604052808a815260200189898080601f0160208091040260200160405190810160405280939291908181526020018383808284375f9201919091525050509082525042602080830191909152336040808401919091528051601f8a018390048302810183019091528881526060909201919089908990819084018382808284375f920182905250938552505050602091820187905283546001818101865594825290829020835160069092020190815590820151919290919082019061121a9082611dc1565b506040820151600282015560608201516003820180546001600160a01b0319166001600160a01b039092169190911790556080820151600482019061125f9082611dc1565b5060a091909101516005909101555f8881526007602090815260408083208054600181018255908452919092200182905551889082907f458336fd7c5948d16ae76ce225c87f858bd744b40d82ddc8272ed4eadeca651590610b8c908b908b904290611e7d565b5f918252602082815260408084206001600160a01b0393909316845291905290205460ff1690565b5f81815260066020908152604091829020805483518184028101840190945280845260609392830182828015610dca57602002820191905f5260205f2090815481526020019060010190808311610db65750505050509050919050565b6001545f90819083106113715760405163447875bf60e11b815260040160405180910390fd5b5f6001848154811061138557611385611ce2565b5f91825260208083206040805160e0810182526005909402909101805484526001808201546001600160a01b03168585015260028201548584015260038201549081900b606086015261ffff620100008204811660808701526401000000009091041660a085015260049081015460c09094018490528385529091529091205460ff169590945092505050565b5f8281526020819052604090206001015461142c8161162d565b610bc2838361184f565b60018181548110611445575f80fd5b5f91825260209091206005909102018054600180830154600284015460038501546004909501549395506001600160a01b039091169390929181900b9161ffff6201000083048116926401000000009004169087565b600381815481106114aa575f80fd5b5f91825260209091206006909102018054600182018054919350906114ce90611d3c565b80601f01602080910402602001604051908101604052809291908181526020018280546114fa90611d3c565b80156115455780601f1061151c57610100808354040283529160200191611545565b820191905f5260205f20905b81548152906001019060200180831161152857829003601f168201915b5050505060028301546003840154600485018054949592946001600160a01b0390921693509061157490611d3c565b80601f01602080910402602001604051908101604052809291908181526020018280546115a090611d3c565b80156115eb5780601f106115c2576101008083540402835291602001916115eb565b820191905f5260205f20905b8154815290600101906020018083116115ce57829003601f168201915b5050505050908060050154905086565b6005602052815f5260405f208181548110610d65575f80fd5b6006602052815f5260405f208181548110610d65575f80fd5b61163781336118b8565b50565b6063198360010b128061165157506102588360010b135b156116bf57336001600160a01b0316847f95e8be25ce99d5e12cac2015ee3df3941fe93667bc5bb68c81b82a3f7ee9ed746040516116b69060208082526013908201527245585452454d455f54454d504552415455524560681b604082015260600190565b60405180910390a35b60328261ffff1610806116d757506103b68261ffff16115b1561174757336001600160a01b0316847f95e8be25ce99d5e12cac2015ee3df3941fe93667bc5bb68c81b82a3f7ee9ed7460405161173e9060208082526015908201527445585452454d455f534f494c5f4d4f49535455524560581b604082015260600190565b60405180910390a35b6103b68161ffff161115610bc257336001600160a01b0316847f95e8be25ce99d5e12cac2015ee3df3941fe93667bc5bb68c81b82a3f7ee9ed746040516117b29060208082526010908201526f45585452454d455f48554d494449545960801b604082015260600190565b60405180910390a350505050565b5f6117cb83836112c6565b611848575f838152602081815260408083206001600160a01b03861684529091529020805460ff191660011790556118003390565b6001600160a01b0316826001600160a01b0316847f2f8788117e7eff1d82e926ec794901d17c78024a50270940304540a733656f0d60405160405180910390a4506001610515565b505f610515565b5f61185a83836112c6565b15611848575f838152602081815260408083206001600160a01b0386168085529252808320805460ff1916905551339286917ff6391f5c32d9c69d2a47ea670b442974b53935d1edc7fd64eb21e047a839171b9190a4506001610515565b6118c282826112c6565b6118f55760405163e2517d3f60e01b81526001600160a01b03821660048201526024810183905260440160405180910390fd5b5050565b5f60208284031215611909575f80fd5b81356001600160e01b031981168114611920575f80fd5b9392505050565b5f8083601f840112611937575f80fd5b50813567ffffffffffffffff81111561194e575f80fd5b6020830191508360208260051b8501011115611968575f80fd5b9250929050565b5f805f805f805f806080898b031215611986575f80fd5b883567ffffffffffffffff8082111561199d575f80fd5b6119a98c838d01611927565b909a50985060208b01359150808211156119c1575f80fd5b6119cd8c838d01611927565b909850965060408b01359150808211156119e5575f80fd5b6119f18c838d01611927565b909650945060608b0135915080821115611a09575f80fd5b50611a168b828c01611927565b999c989b5096995094979396929594505050565b5f8083601f840112611a3a575f80fd5b50813567ffffffffffffffff811115611a51575f80fd5b602083019150836020828501011115611968575f80fd5b5f805f805f8060808789031215611a7d575f80fd5b86359550602087013567ffffffffffffffff80821115611a9b575f80fd5b611aa78a838b01611a2a565b90975095506040890135915080821115611abf575f80fd5b50611acc89828a01611a2a565b979a9699509497949695606090950135949350505050565b5f60208284031215611af4575f80fd5b5035919050565b5f8060408385031215611b0c575f80fd5b8235915060208301356001600160a01b0381168114611b29575f80fd5b809150509250929050565b5f81518084525f5b81811015611b5857602081850181015186830182015201611b3c565b505f602082860101526020601f19601f83011685010191505092915050565b85815260a060208201525f611b8f60a0830187611b34565b8560408401528281036060840152611ba78186611b34565b9150508260808301529695505050505050565b5f8060408385031215611bcb575f80fd5b50508035926020909101359150565b602080825282518282018190525f9190848201906040850190845b81811015611c1157835183529284019291840191600101611bf5565b50909695505050505050565b8035600181900b8114611c2e575f80fd5b919050565b803561ffff81168114611c2e575f80fd5b5f805f8060808587031215611c57575f80fd5b84359350611c6760208601611c1d565b9250611c7560408601611c33565b9150611c8360608601611c33565b905092959194509250565b86815260c060208201525f611ca660c0830188611b34565b604083018790526001600160a01b03861660608401528281036080840152611cce8186611b34565b9150508260a0830152979650505050505050565b634e487b7160e01b5f52603260045260245ffd5b5f60208284031215611d06575f80fd5b61192082611c33565b5f60208284031215611d1f575f80fd5b61192082611c1d565b634e487b7160e01b5f52604160045260245ffd5b600181811c90821680611d5057607f821691505b602082108103611d6e57634e487b7160e01b5f52602260045260245ffd5b50919050565b601f821115610bfb575f81815260208120601f850160051c81016020861015611d9a5750805b601f850160051c820191505b81811015611db957828155600101611da6565b505050505050565b815167ffffffffffffffff811115611ddb57611ddb611d28565b611def81611de98454611d3c565b84611d74565b602080601f831160018114611e22575f8415611e0b5750858301515b5f19600386901b1c1916600185901b178555611db9565b5f85815260208120601f198616915b82811015611e5057888601518255948401946001909101908401611e31565b5085821015611e6d57878501515f19600388901b60f8161c191681555b5050505050600190811b01905550565b60408152826040820152828460608301375f606084830101525f6060601f19601f860116830101905082602083015294935050505056fea2646970667358221220230427a09e27d1b2ca2f225ac6ac7d5b0dd286f6a2d62f852fec116630429cc864736f6c63430008140033","linkReferences":{}},"methodIdentifiers":{"DEFAULT_ADMIN_ROLE()":"a217fddf","DEVICE_ROLE()":"b0e26d70","FARMER_ROLE()":"f3943970","RESEARCHER_ROLE()":"50f2aab3","SUPPLY_CHAIN_ROLE()":"f24cb034","cropEvents(uint256)":"4688f7db","dataHashes(bytes32)":"8ea768fe","farmToCropEvents(uint256,uint256)":"fda7503b","farmToReadings(uint256,uint256)":"faf1fba6","getCropEventsByFarm(uint256)":"a9bf7419","getReadingsByFarm(uint256)":"58cfe812","getRoleAdmin(bytes32)":"248a9ca3","getSupplyChainStages(uint256)":"72067fe9","getTotalCropEvents()":"8e07dd94","getTotalReadings()":"6ed71357","getTotalSupplyChainStages()":"776cce90","grantRole(bytes32,address)":"2f2ff15d","hasRole(bytes32,address)":"91d14854","productToStages(uint256,uint256)":"56c70ed6","readings(uint256)":"d5da886d","recordCropEvent(uint256,string,string,bytes32)":"0faa74e5","recordSupplyChainStage(uint256,string,string,bytes32)":"88c36035","renounceRole(bytes32,address)":"36568abe","revokeRole(bytes32,address)":"d547741f","submitBatch(uint256[],int16[],uint16[],uint16[])":"0d8d976c","submitSensorData(uint256,int16,uint16,uint16)":"864b6485","supplyChainStages(uint256)":"f2410ef7","supportsInterface(bytes4)":"01ffc9a7","verifyReading(uint256)":"aaf10752"},"id":0}