{
  "_format": "hh3-artifact-1",
  "contractName": "DeviceRegistry",
  "sourceName": "contracts/DeviceRegistry.sol",
  "abi": [
    {
      "inputs": [],
      "stateMutability": "nonpayable",
      "type": "constructor"
    },
    {
      "inputs": [],
      "name": "AccessControlBadConfirmation",
      "type": "error"
    },
    {
      "inputs": [
        {
          "internalType": "address",
          "name": "account",
          "type": "address"
        },
        {
          "internalType": "bytes32",
          "name": "neededRole",
          "type": "bytes32"
        }
      ],
      "name": "AccessControlUnauthorizedAccount",
      "type": "error"
    },
    {
      "inputs": [],
      "name": "DeviceAlreadyRegistered",
      "type": "error"
    },
    {
      "inputs": [],
      "name": "DeviceNotFound",
      "type": "error"
    },
    {
      "inputs": [],
      "name": "EmptyMetadataCID",
      "type": "error"
    },
    {
      "inputs": [],
      "name": "InvalidAddress",
      "type": "error"
    },
    {
      "anonymous": false,
      "inputs": [
        {
          "indexed": true,
          "internalType": "address",
          "name": "deviceAddress",
          "type": "address"
        },
        {
          "indexed": true,
          "internalType": "address",
          "name": "owner",
          "type": "address"
        },
        {
          "indexed": false,
          "internalType": "string",
          "name": "metadataCID",
          "type": "string"
        },
        {
          "indexed": false,
          "internalType": "uint256",
          "name": "traceTokenId",
          "type": "uint256"
        },
        {
          "indexed": false,
          "internalType": "uint256",
          "name": "timestamp",
          "type": "uint256"
        }
      ],
      "name": "DeviceAdded",
      "type": "event"
    },
    {
      "anonymous": false,
      "inputs": [
        {
          "indexed": true,
          "internalType": "address",
          "name": "deviceAddress",
          "type": "address"
        },
        {
          "indexed": false,
          "internalType": "uint256",
          "name": "timestamp",
          "type": "uint256"
        }
      ],
      "name": "DeviceDeactivated",
      "type": "event"
    },
    {
      "anonymous": false,
      "inputs": [
        {
          "indexed": true,
          "internalType": "address",
          "name": "deviceAddress",
          "type": "address"
        },
        {
          "indexed": false,
          "internalType": "uint256",
          "name": "timestamp",
          "type": "uint256"
        }
      ],
      "name": "DeviceReactivated",
      "type": "event"
    },
    {
      "anonymous": false,
      "inputs": [
        {
          "indexed": true,
          "internalType": "address",
          "name": "deviceAddress",
          "type": "address"
        },
        {
          "indexed": false,
          "internalType": "string",
          "name": "newMetadataCID",
          "type": "string"
        },
        {
          "indexed": false,
          "internalType": "uint256",
          "name": "timestamp",
          "type": "uint256"
        }
      ],
      "name": "MetadataUpdated",
      "type": "event"
    },
    {
      "anonymous": false,
      "inputs": [
        {
          "indexed": true,
          "internalType": "bytes32",
          "name": "role",
          "type": "bytes32"
        },
        {
          "indexed": true,
          "internalType": "bytes32",
          "name": "previousAdminRole",
          "type": "bytes32"
        },
        {
          "indexed": true,
          "internalType": "bytes32",
          "name": "newAdminRole",
          "type": "bytes32"
        }
      ],
      "name": "RoleAdminChanged",
      "type": "event"
    },
    {
      "anonymous": false,
      "inputs": [
        {
          "indexed": true,
          "internalType": "bytes32",
          "name": "role",
          "type": "bytes32"
        },
        {
          "indexed": true,
          "internalType": "address",
          "name": "account",
          "type": "address"
        },
        {
          "indexed": true,
          "internalType": "address",
          "name": "sender",
          "type": "address"
        }
      ],
      "name": "RoleGranted",
      "type": "event"
    },
    {
      "anonymous": false,
      "inputs": [
        {
          "indexed": true,
          "internalType": "bytes32",
          "name": "role",
          "type": "bytes32"
        },
        {
          "indexed": true,
          "internalType": "address",
          "name": "account",
          "type": "address"
        },
        {
          "indexed": true,
          "internalType": "address",
          "name": "sender",
          "type": "address"
        }
      ],
      "name": "RoleRevoked",
      "type": "event"
    },
    {
      "inputs": [],
      "name": "DEFAULT_ADMIN_ROLE",
      "outputs": [
        {
          "internalType": "bytes32",
          "name": "",
          "type": "bytes32"
        }
      ],
      "stateMutability": "view",
      "type": "function"
    },
    {
      "inputs": [
        {
          "internalType": "address",
          "name": "deviceAddress",
          "type": "address"
        },
        {
          "internalType": "address",
          "name": "owner",
          "type": "address"
        },
        {
          "internalType": "string",
          "name": "metadataCID",
          "type": "string"
        },
        {
          "internalType": "uint256",
          "name": "traceTokenId",
          "type": "uint256"
        }
      ],
      "name": "addDevice",
      "outputs": [],
      "stateMutability": "nonpayable",
      "type": "function"
    },
    {
      "inputs": [
        {
          "internalType": "address",
          "name": "deviceAddress",
          "type": "address"
        }
      ],
      "name": "deactivateDevice",
      "outputs": [],
      "stateMutability": "nonpayable",
      "type": "function"
    },
    {
      "inputs": [
        {
          "internalType": "uint256",
          "name": "",
          "type": "uint256"
        }
      ],
      "name": "deviceList",
      "outputs": [
        {
          "internalType": "address",
          "name": "",
          "type": "address"
        }
      ],
      "stateMutability": "view",
      "type": "function"
    },
    {
      "inputs": [
        {
          "internalType": "address",
          "name": "",
          "type": "address"
        }
      ],
      "name": "devices",
      "outputs": [
        {
          "internalType": "address",
          "name": "deviceAddress",
          "type": "address"
        },
        {
          "internalType": "address",
          "name": "owner",
          "type": "address"
        },
        {
          "internalType": "string",
          "name": "metadataCID",
          "type": "string"
        },
        {
          "internalType": "uint256",
          "name": "traceTokenId",
          "type": "uint256"
        },
        {
          "internalType": "uint256",
          "name": "registeredAt",
          "type": "uint256"
        },
        {
          "internalType": "bool",
          "name": "active",
          "type": "bool"
        }
      ],
      "stateMutability": "view",
      "type": "function"
    },
    {
      "inputs": [
        {
          "internalType": "address",
          "name": "deviceAddress",
          "type": "address"
        }
      ],
      "name": "getDevice",
      "outputs": [
        {
          "components": [
            {
              "internalType": "address",
              "name": "deviceAddress",
              "type": "address"
            },
            {
              "internalType": "address",
              "name": "owner",
              "type": "address"
            },
            {
              "internalType": "string",
              "name": "metadataCID",
              "type": "string"
            },
            {
              "internalType": "uint256",
              "name": "traceTokenId",
              "type": "uint256"
            },
            {
              "internalType": "uint256",
              "name": "registeredAt",
              "type": "uint256"
            },
            {
              "internalType": "bool",
              "name": "active",
              "type": "bool"
            }
          ],
          "internalType": "struct DeviceRegistry.DeviceInfo",
          "name": "",
          "type": "tuple"
        }
      ],
      "stateMutability": "view",
      "type": "function"
    },
    {
      "inputs": [
        {
          "internalType": "uint256",
          "name": "index",
          "type": "uint256"
        }
      ],
      "name": "getDeviceByIndex",
      "outputs": [
        {
          "internalType": "address",
          "name": "",
          "type": "address"
        }
      ],
      "stateMutability": "view",
      "type": "function"
    },
    {
      "inputs": [
        {
          "internalType": "address",
          "name": "owner",
          "type": "address"
        }
      ],
      "name": "getDevicesByOwner",
      "outputs": [
        {
          "internalType": "uint256[]",
          "name": "",
          "type": "uint256[]"
        }
      ],
      "stateMutability": "view",
      "type": "function"
    },
    {
      "inputs": [
        {
          "internalType": "uint256",
          "name": "traceTokenId",
          "type": "uint256"
        }
      ],
      "name": "getDevicesByProduct",
      "outputs": [
        {
          "internalType": "address[]",
          "name": "",
          "type": "address[]"
        }
      ],
      "stateMutability": "view",
      "type": "function"
    },
    {
      "inputs": [
        {
          "internalType": "address",
          "name": "deviceAddress",
          "type": "address"
        }
      ],
      "name": "getMetadataCID",
      "outputs": [
        {
          "internalType": "string",
          "name": "",
          "type": "string"
        }
      ],
      "stateMutability": "view",
      "type": "function"
    },
    {
      "inputs": [
        {
          "internalType": "bytes32",
          "name": "role",
          "type": "bytes32"
        }
      ],
      "name": "getRoleAdmin",
      "outputs": [
        {
          "internalType": "bytes32",
          "name": "",
          "type": "bytes32"
        }
      ],
      "stateMutability": "view",
      "type": "function"
    },
    {
      "inputs": [],
      "name": "getTotalDevices",
      "outputs": [
        {
          "internalType": "uint256",
          "name": "",
          "type": "uint256"
        }
      ],
      "stateMutability": "view",
      "type": "function"
    },
    {
      "inputs": [
        {
          "internalType": "bytes32",
          "name": "role",
          "type": "bytes32"
        },
        {
          "internalType": "address",
          "name": "account",
          "type": "address"
        }
      ],
      "name": "grantRole",
      "outputs": [],
      "stateMutability": "nonpayable",
      "type": "function"
    },
    {
      "inputs": [
        {
          "internalType": "bytes32",
          "name": "role",
          "type": "bytes32"
        },
        {
          "internalType": "address",
          "name": "account",
          "type": "address"
        }
      ],
      "name": "hasRole",
      "outputs": [
        {
          "internalType": "bool",
          "name": "",
          "type": "bool"
        }
      ],
      "stateMutability": "view",
      "type": "function"
    },
    {
      "inputs": [
        {
          "internalType": "address",
          "name": "deviceAddress",
          "type": "address"
        }
      ],
      "name": "isDeviceActive",
      "outputs": [
        {
          "internalType": "bool",
          "name": "",
          "type": "bool"
        }
      ],
      "stateMutability": "view",
      "type": "function"
    },
    {
      "inputs": [
        {
          "internalType": "address",
          "name": "",
          "type": "address"
        }
      ],
      "name": "isRegistered",
      "outputs": [
        {
          "internalType": "bool",
          "name": "",
          "type": "bool"
        }
      ],
      "stateMutability": "view",
      "type": "function"
    },
    {
      "inputs": [
        {
          "internalType": "address",
          "name": "",
          "type": "address"
        },
        {
          "internalType": "uint256",
          "name": "",
          "type": "uint256"
        }
      ],
      "name": "ownerToDevices",
      "outputs": [
        {
          "internalType": "uint256",
          "name": "",
          "type": "uint256"
        }
      ],
      "stateMutability": "view",
      "type": "function"
    },
    {
      "inputs": [
        {
          "internalType": "address",
          "name": "deviceAddress",
          "type": "address"
        }
      ],
      "name": "reactivateDevice",
      "outputs": [],
      "stateMutability": "nonpayable",
      "type": "function"
    },
    {
      "inputs": [
        {
          "internalType": "bytes32",
          "name": "role",
          "type": "bytes32"
        },
        {
          "internalType": "address",
          "name": "callerConfirmation",
          "type": "address"
        }
      ],
      "name": "renounceRole",
      "outputs": [],
      "stateMutability": "nonpayable",
      "type": "function"
    },
    {
      "inputs": [
        {
          "internalType": "bytes32",
          "name": "role",
          "type": "bytes32"
        },
        {
          "internalType": "address",
          "name": "account",
          "type": "address"
        }
      ],
      "name": "revokeRole",
      "outputs": [],
      "stateMutability": "nonpayable",
      "type": "function"
    },
    {
      "inputs": [
        {
          "internalType": "bytes4",
          "name": "interfaceId",
          "type": "bytes4"
        }
      ],
      "name": "supportsInterface",
      "outputs": [
        {
          "internalType": "bool",
          "name": "",
          "type": "bool"
        }
      ],
      "stateMutability": "view",
      "type": "function"
    },
    {
      "inputs": [
        {
          "internalType": "uint256",
          "name": "",
          "type": "uint256"
        },
        {
          "internalType": "uint256",
          "name": "",
          "type": "uint256"
        }
      ],
      "name": "traceTokenToDevices",
      "outputs": [
        {
          "internalType": "address",
          "name": "",
          "type": "address"
        }
      ],
      "stateMutability": "view",
      "type": "function"
    },
    {
      "inputs": [
        {
          "internalType": "address",
          "name": "deviceAddress",
          "type": "address"
        },
        {
          "internalType": "string",
          "name": "newMetadataCID",
          "type": "string"
        }
      ],
      "name": "updateMetadata",
      "outputs": [],
      "stateMutability": "nonpayable",
      "type": "function"
    }
  ],
  "bytecode": "0x608060405234801561001057600080fd5b5061001c600033610022565b506100ce565b6000828152602081815260408083206001600160a01b038516845290915281205460ff166100c4576000838152602081815260408083206001600160a01b03861684529091529020805460ff1916600117905561007c3390565b6001600160a01b0316826001600160a01b0316847f2f8788117e7eff1d82e926ec794901d17c78024a50270940304540a733656f0d60405160405180910390a45060016100c8565b5060005b92915050565b61163b806100dd6000396000f3fe608060405234801561001057600080fd5b506004361061014c5760003560e01c80639b57a128116100c3578063d425b8491161007c578063d425b8491461031e578063d547741f14610331578063da38d49814610344578063dc61d16114610357578063e1f653b11461035f578063e7b4cac61461037257600080fd5b80639b57a1281461029a578063a217fddf146102ad578063a7e1064f146102b5578063c3c5a547146102c8578063c73c6005146102eb578063cf65952c1461030b57600080fd5b806336568abe1161011557806336568abe146101f65780633e4e81c7146102095780634ec8c1421461023457806351b0e9871461025457806391d1485414610274578063979ebb421461028757600080fd5b8062d553181461015157806301ffc9a71461017a5780630d3f730e1461019d578063248a9ca3146101be5780632f2ff15d146101e1575b600080fd5b61016461015f366004610fc7565b610397565b604051610171919061102f565b60405180910390f35b61018d610188366004611097565b610514565b6040519015158152602001610171565b6101b06101ab3660046110c1565b61054b565b604051908152602001610171565b6101b06101cc3660046110eb565b60009081526020819052604090206001015490565b6101f46101ef366004611104565b61057c565b005b6101f4610204366004611104565b6105a7565b61021c610217366004611130565b6105df565b6040516001600160a01b039091168152602001610171565b6102476102423660046110eb565b610617565b6040516101719190611152565b610267610262366004610fc7565b610683565b604051610171919061119f565b61018d610282366004611104565b6106ee565b61021c6102953660046110eb565b610717565b61018d6102a8366004610fc7565b610741565b6101b0600081565b6101f46102c3366004611220565b610786565b61018d6102d6366004610fc7565b60026020526000908152604090205460ff1681565b6102fe6102f9366004610fc7565b610a44565b6040516101719190611289565b6101f4610319366004610fc7565b610b21565b6101f461032c366004610fc7565b610bc6565b6101f461033f366004611104565b610c62565b6101f461035236600461129c565b610c87565b6003546101b0565b61021c61036d3660046110eb565b610d5f565b610385610380366004610fc7565b610d8f565b604051610171969594939291906112ef565b6103e46040518060c0016040528060006001600160a01b0316815260200160006001600160a01b031681526020016060815260200160008152602001600081526020016000151581525090565b6001600160a01b03821660009081526002602052604090205460ff1661041d57604051636ee5783b60e11b815260040160405180910390fd5b6001600160a01b03808316600090815260016020818152604092839020835160c08101855281548616815292810154909416908201526002830180549193928401916104689061133b565b80601f01602080910402602001604051908101604052809291908181526020018280546104949061133b565b80156104e15780601f106104b6576101008083540402835291602001916104e1565b820191906000526020600020905b8154815290600101906020018083116104c457829003601f168201915b5050509183525050600382015460208201526004820154604082015260059091015460ff16151560609091015292915050565b60006001600160e01b03198216637965db0b60e01b148061054557506301ffc9a760e01b6001600160e01b03198316145b92915050565b6005602052816000526040600020818154811061056757600080fd5b90600052602060002001600091509150505481565b60008281526020819052604090206001015461059781610e60565b6105a18383610e6d565b50505050565b6001600160a01b03811633146105d05760405163334bd91960e11b815260040160405180910390fd5b6105da8282610eff565b505050565b600460205281600052604060002081815481106105fb57600080fd5b6000918252602090912001546001600160a01b03169150829050565b60008181526004602090815260409182902080548351818402810184019094528084526060939283018282801561067757602002820191906000526020600020905b81546001600160a01b03168152600190910190602001808311610659575b50505050509050919050565b6001600160a01b03811660009081526005602090815260409182902080548351818402810184019094528084526060939283018282801561067757602002820191906000526020600020905b8154815260200190600101908083116106cf5750505050509050919050565b6000918252602082815260408084206001600160a01b0393909316845291905290205460ff1690565b6003818154811061072757600080fd5b6000918252602090912001546001600160a01b0316905081565b6001600160a01b03811660009081526002602052604081205460ff1680156105455750506001600160a01b031660009081526001602052604090206005015460ff1690565b600061079181610e60565b6001600160a01b03861615806107ae57506001600160a01b038516155b156107cc5760405163e6c4247b60e01b815260040160405180910390fd5b6001600160a01b03861660009081526002602052604090205460ff16156108065760405163024a9f8b60e01b815260040160405180910390fd5b60008390036108285760405163d3cefccf60e01b815260040160405180910390fd5b60006040518060c00160405280886001600160a01b03168152602001876001600160a01b0316815260200186868080601f0160208091040260200160405190810160405280939291908181526020018383808284376000920182905250938552505050602080830187905242604080850191909152600160609094018490526001600160a01b03808d16845284835292819020855181549085166001600160a01b0319918216178255928601519481018054959094169490921693909317909155908201519192508291600282019061090190826113d9565b506060820151600380830191909155608083015160048084019190915560a0909301516005928301805491151560ff199283161790556001600160a01b03808c16600081815260026020908152604080832080549096166001908117909655865480870188557fc2575a0e9e593c00f959f8c92f12db2869c3395a3b0502d05e2516446f71f85b0180546001600160a01b031990811686179091558c845298825280832080548088018255908452828420018054909916909317909755918c168252939094529190922091546109d79190611499565b815460018101835560009283526020909220909101556040516001600160a01b0380881691908916907f55007c7e4d934b430b5fcdba28d4f4d55d8a69e143d352d6386cb27a567adffe90610a339089908990899042906114e3565b60405180910390a350505050505050565b6001600160a01b03811660009081526002602052604090205460609060ff16610a8057604051636ee5783b60e11b815260040160405180910390fd5b6001600160a01b03821660009081526001602052604090206002018054610aa69061133b565b80601f0160208091040260200160405190810160405280929190818152602001828054610ad29061133b565b80156106775780601f10610af457610100808354040283529160200191610677565b820191906000526020600020905b815481529060010190602001808311610b025750939695505050505050565b6000610b2c81610e60565b6001600160a01b03821660009081526002602052604090205460ff16610b6557604051636ee5783b60e11b815260040160405180910390fd5b6001600160a01b03821660008181526001602052604090819020600501805460ff19169055517f7d7f7cf0270a569fa499b9cc372fb1fb6a015b519d26b7847c49f1b4b510b6c390610bba9042815260200190565b60405180910390a25050565b6000610bd181610e60565b6001600160a01b03821660009081526002602052604090205460ff16610c0a57604051636ee5783b60e11b815260040160405180910390fd5b6001600160a01b038216600081815260016020818152604092839020600501805460ff191690921790915590514281527f2e1b495a6bbd6ec9ff365c30b2e41d71eca3c284847d6a4abc63af50156102fc9101610bba565b600082815260208190526040902060010154610c7d81610e60565b6105a18383610eff565b6000610c9281610e60565b6001600160a01b03841660009081526002602052604090205460ff16610ccb57604051636ee5783b60e11b815260040160405180910390fd5b6000829003610ced5760405163d3cefccf60e01b815260040160405180910390fd5b6001600160a01b0384166000908152600160205260409020600201610d1383858361150a565b50836001600160a01b03167f35224cade043c033fe1e2521d7d83e401fe108e394a3f0cff8e076a966b25786848442604051610d51939291906115cb565b60405180910390a250505050565b600060038281548110610d7457610d746115ef565b6000918252602090912001546001600160a01b031692915050565b60016020819052600091825260409091208054918101546002820180546001600160a01b03948516949092169291610dc69061133b565b80601f0160208091040260200160405190810160405280929190818152602001828054610df29061133b565b8015610e3f5780601f10610e1457610100808354040283529160200191610e3f565b820191906000526020600020905b815481529060010190602001808311610e2257829003601f168201915b50505050600383015460048401546005909401549293909290915060ff1686565b610e6a8133610f6a565b50565b6000610e7983836106ee565b610ef7576000838152602081815260408083206001600160a01b03861684529091529020805460ff19166001179055610eaf3390565b6001600160a01b0316826001600160a01b0316847f2f8788117e7eff1d82e926ec794901d17c78024a50270940304540a733656f0d60405160405180910390a4506001610545565b506000610545565b6000610f0b83836106ee565b15610ef7576000838152602081815260408083206001600160a01b0386168085529252808320805460ff1916905551339286917ff6391f5c32d9c69d2a47ea670b442974b53935d1edc7fd64eb21e047a839171b9190a4506001610545565b610f7482826106ee565b610fa75760405163e2517d3f60e01b81526001600160a01b03821660048201526024810183905260440160405180910390fd5b5050565b80356001600160a01b0381168114610fc257600080fd5b919050565b600060208284031215610fd957600080fd5b610fe282610fab565b9392505050565b6000815180845260005b8181101561100f57602081850181015186830182015201610ff3565b506000602082860101526020601f19601f83011685010191505092915050565b60208152600060018060a01b0380845116602084015280602085015116604084015250604083015160c0606084015261106b60e0840182610fe9565b905060608401516080840152608084015160a084015260a0840151151560c08401528091505092915050565b6000602082840312156110a957600080fd5b81356001600160e01b031981168114610fe257600080fd5b600080604083850312156110d457600080fd5b6110dd83610fab565b946020939093013593505050565b6000602082840312156110fd57600080fd5b5035919050565b6000806040838503121561111757600080fd5b8235915061112760208401610fab565b90509250929050565b6000806040838503121561114357600080fd5b50508035926020909101359150565b6020808252825182820181905260009190848201906040850190845b818110156111935783516001600160a01b03168352928401929184019160010161116e565b50909695505050505050565b6020808252825182820181905260009190848201906040850190845b81811015611193578351835292840192918401916001016111bb565b60008083601f8401126111e957600080fd5b50813567ffffffffffffffff81111561120157600080fd5b60208301915083602082850101111561121957600080fd5b9250929050565b60008060008060006080868803121561123857600080fd5b61124186610fab565b945061124f60208701610fab565b9350604086013567ffffffffffffffff81111561126b57600080fd5b611277888289016111d7565b96999598509660600135949350505050565b602081526000610fe26020830184610fe9565b6000806000604084860312156112b157600080fd5b6112ba84610fab565b9250602084013567ffffffffffffffff8111156112d657600080fd5b6112e2868287016111d7565b9497909650939450505050565b6001600160a01b0387811682528616602082015260c06040820181905260009061131b90830187610fe9565b6060830195909552506080810192909252151560a0909101529392505050565b600181811c9082168061134f57607f821691505b60208210810361136f57634e487b7160e01b600052602260045260246000fd5b50919050565b634e487b7160e01b600052604160045260246000fd5b601f8211156105da57600081815260208120601f850160051c810160208610156113b25750805b601f850160051c820191505b818110156113d1578281556001016113be565b505050505050565b815167ffffffffffffffff8111156113f3576113f3611375565b61140781611401845461133b565b8461138b565b602080601f83116001811461143c57600084156114245750858301515b600019600386901b1c1916600185901b1785556113d1565b600085815260208120601f198616915b8281101561146b5788860151825594840194600190910190840161144c565b50858210156114895787850151600019600388901b60f8161c191681555b5050505050600190811b01905550565b8181038181111561054557634e487b7160e01b600052601160045260246000fd5b81835281816020850137506000828201602090810191909152601f909101601f19169091010190565b6060815260006114f76060830186886114ba565b6020830194909452506040015292915050565b67ffffffffffffffff83111561152257611522611375565b61153683611530835461133b565b8361138b565b6000601f84116001811461156a57600085156115525750838201355b600019600387901b1c1916600186901b1783556115c4565b600083815260209020601f19861690835b8281101561159b578685013582556020948501946001909201910161157b565b50868210156115b85760001960f88860031b161c19848701351681555b505060018560011b0183555b5050505050565b6040815260006115df6040830185876114ba565b9050826020830152949350505050565b634e487b7160e01b600052603260045260246000fdfea26469706673582212209ba33e49d669e97bd655701e5d3a4127758a772177897a65ab8f8a5eea80a18664736f6c63430008140033",
  "linkReferences": {},
  "deployedLinkReferences": {},
  "immutableReferences": {},
  "inputSourceName": "project/contracts/DeviceRegistry.sol",
  "buildInfoId": "solc-0_8_20-657f68d04870aa19b72ec52609b2272999bccb38"
}