{"project/contracts/CampusCreditV2.sol":{"AgriSensorData":{"abi":[{"inputs":[],"stateMutability":"nonpayable","type":"constructor"},{"inputs":[],"name":"AccessControlBadConfirmation","type":"error"},{"inputs":[{"internalType":"address","name":"account","type":"address"},{"internalType":"bytes32","name":"neededRole","type":"bytes32"}],"name":"AccessControlUnauthorizedAccount","type":"error"},{"inputs":[],"name":"ArrayLengthMismatch","type":"error"},{"inputs":[],"name":"DuplicateDataHash","type":"error"},{"inputs":[],"name":"InvalidSensorData","type":"error"},{"inputs":[],"name":"ReadingNotFound","type":"error"},{"inputs":[],"name":"UnauthorizedDevice","type":"error"},{"anonymous":false,"inputs":[{"indexed":true,"internalType":"uint256","name":"readingId","type":"uint256"},{"indexed":true,"internalType":"address","name":"deviceId","type":"address"},{"indexed":false,"internalType":"string","name":"anomalyType","type":"string"}],"name":"AnomalyDetected","type":"event"},{"anonymous":false,"inputs":[{"indexed":true,"internalType":"uint256","name":"eventId","type":"uint256"},{"indexed":true,"internalType":"uint256","name":"farmId","type":"uint256"},{"indexed":false,"internalType":"string","name":"eventType","type":"string"},{"indexed":false,"internalType":"uint256","name":"timestamp","type":"uint256"}],"name":"CropEventRecorded","type":"event"},{"anonymous":false,"inputs":[{"indexed":true,"internalType":"bytes32","name":"role","type":"bytes32"},{"indexed":true,"internalType":"bytes32","name":"previousAdminRole","type":"bytes32"},{"indexed":true,"internalType":"bytes32","name":"newAdminRole","type":"bytes32"}],"name":"RoleAdminChanged","type":"event"},{"anonymous":false,"inputs":[{"indexed":true,"internalType":"bytes32","name":"role","type":"bytes32"},{"indexed":true,"internalType":"address","name":"account","type":"address"},{"indexed":true,"internalType":"address","name":"sender","type":"address"}],"name":"RoleGranted","type":"event"},{"anonymous":false,"inputs":[{"indexed":true,"internalType":"bytes32","name":"role","type":"bytes32"},{"indexed":true,"internalType":"address","name":"account","type":"address"},{"indexed":true,"internalType":"address","name":"sender","type":"address"}],"name":"RoleRevoked","type":"event"},{"anonymous":false,"inputs":[{"indexed":true,"internalType":"uint256","name":"readingId","type":"uint256"},{"indexed":true,"internalType":"address","name":"deviceId","type":"address"},{"indexed":true,"internalType":"uint256","name":"farmId","type":"uint256"},{"indexed":false,"internalType":"uint256","name":"timestamp","type":"uint256"}],"name":"SensorDataSubmitted","type":"event"},{"anonymous":false,"inputs":[{"indexed":true,"internalType":"uint256","name":"stageId","type":"uint256"},{"indexed":true,"internalType":"uint256","name":"productId","type":"uint256"},{"indexed":false,"internalType":"string","name":"stage","type":"string"},{"indexed":false,"internalType":"uint256","name":"timestamp","type":"uint256"}],"name":"SupplyChainStageRecorded","type":"event"},{"inputs":[],"name":"DEFAULT_ADMIN_ROLE","outputs":[{"internalType":"bytes32","name":"","type":"bytes32"}],"stateMutability":"view","type":"function"},{"inputs":[],"name":"DEVICE_ROLE","outputs":[{"internalType":"bytes32","name":"","type":"bytes32"}],"stateMutability":"view","type":"function"},{"inputs":[],"name":"FARMER_ROLE","outputs":[{"internalType":"bytes32","name":"","type":"bytes32"}],"stateMutability":"view","type":"function"},{"inputs":[],"name":"RESEARCHER_ROLE","outputs":[{"internalType":"bytes32","name":"","type":"bytes32"}],"stateMutability":"view","type":"function"},{"inputs":[],"name":"SUPPLY_CHAIN_ROLE","outputs":[{"internalType":"bytes32","name":"","type":"bytes32"}],"stateMutability":"view","type":"function"},{"inputs":[{"internalType":"uint256","name":"","type":"uint256"}],"name":"cropEvents","outputs":[{"internalType":"uint256","name":"farmId","type":"uint256"},{"internalType":"string","name":"eventType","type":"string"},{"internalType":"uint256","name":"timestamp","type":"uint256"},{"internalType":"string","name":"notes","type":"string"},{"internalType":"bytes32","name":"linkedDataHash","type":"bytes32"}],"stateMutability":"view","type":"function"},{"inputs":[{"internalType":"bytes32","name":"","type":"bytes32"}],"name":"dataHashes","outputs":[{"internalType":"bool","name":"","type":"bool"}],"stateMutability":"view","type":"function"},{"inputs":[{"internalType":"uint256","name":"","type":"uint256"},{"internalType":"uint256","name":"","type":"uint256"}],"name":"farmToCropEvents","outputs":[{"internalType":"uint256","name":"","type":"uint256"}],"stateMutability":"view","type":"function"},{"inputs":[{"internalType":"uint256","name":"","type":"uint256"},{"internalType":"uint256","name":"","type":"uint256"}],"name":"farmToReadings","outputs":[{"internalType":"uint256","name":"","type":"uint256"}],"stateMutability":"view","type":"function"},{"inputs":[{"internalType":"uint256","name":"farmId","type":"uint256"}],"name":"getCropEventsByFarm","outputs":[{"internalType":"uint256[]","name":"","type":"uint256[]"}],"stateMutability":"view","type":"function"},{"inputs":[{"internalType":"uint256","name":"farmId","type":"uint256"}],"name":"getReadingsByFarm","outputs":[{"internalType":"uint256[]","name":"","type":"uint256[]"}],"stateMutability":"view","type":"function"},{"inputs":[{"internalType":"bytes32","name":"role","type":"bytes32"}],"name":"getRoleAdmin","outputs":[{"internalType":"bytes32","name":"","type":"bytes32"}],"stateMutability":"view","type":"function"},{"inputs":[{"internalType":"uint256","name":"productId","type":"uint256"}],"name":"getSupplyChainStages","outputs":[{"internalType":"uint256[]","name":"","type":"uint256[]"}],"stateMutability":"view","type":"function"},{"inputs":[],"name":"getTotalCropEvents","outputs":[{"internalType":"uint256","name":"","type":"uint256"}],"stateMutability":"view","type":"function"},{"inputs":[],"name":"getTotalReadings","outputs":[{"internalType":"uint256","name":"","type":"uint256"}],"stateMutability":"view","type":"function"},{"inputs":[],"name":"getTotalSupplyChainStages","outputs":[{"internalType":"uint256","name":"","type":"uint256"}],"stateMutability":"view","type":"function"},{"inputs":[{"internalType":"bytes32","name":"role","type":"bytes32"},{"internalType":"address","name":"account","type":"address"}],"name":"grantRole","outputs":[],"stateMutability":"nonpayable","type":"function"},{"inputs":[{"internalType":"bytes32","name":"role","type":"bytes32"},{"internalType":"address","name":"account","type":"address"}],"name":"hasRole","outputs":[{"internalType":"bool","name":"","type":"bool"}],"stateMutability":"view","type":"function"},{"inputs":[{"internalType":"uint256","name":"","type":"uint256"},{"internalType":"uint256","name":"","type":"uint256"}],"name":"productToStages","outputs":[{"internalType":"uint256","name":"","type":"uint256"}],"stateMutability":"view","type":"function"},{"inputs":[{"internalType":"uint256","name":"","type":"uint256"}],"name":"readings","outputs":[{"internalType":"uint256","name":"timestamp","type":"uint256"},{"internalType":"address","name":"deviceId","type":"address"},{"internalType":"uint256","name":"farmId","type":"uint256"},{"internalType":"int16","name":"temperature","type":"int16"},{"internalType":"uint16","name":"soilMoisture","type":"uint16"},{"internalType":"uint16","name":"humidity","type":"uint16"},{"internalType":"bytes32","name":"dataHash","type":"bytes32"}],"stateMutability":"view","type":"function"},{"inputs":[{"internalType":"uint256","name":"farmId","type":"uint256"},{"internalType":"string","name":"eventType","type":"string"},{"internalType":"string","name":"notes","type":"string"},{"internalType":"bytes32","name":"linkedDataHash","type":"bytes32"}],"name":"recordCropEvent","outputs":[],"stateMutability":"nonpayable","type":"function"},{"inputs":[{"internalType":"uint256","name":"productId","type":"uint256"},{"internalType":"string","name":"stage","type":"string"},{"internalType":"string","name":"location","type":"string"},{"internalType":"bytes32","name":"linkedDataHash","type":"bytes32"}],"name":"recordSupplyChainStage","outputs":[],"stateMutability":"nonpayable","type":"function"},{"inputs":[{"internalType":"bytes32","name":"role","type":"bytes32"},{"internalType":"address","name":"callerConfirmation","type":"address"}],"name":"renounceRole","outputs":[],"stateMutability":"nonpayable","type":"function"},{"inputs":[{"internalType":"bytes32","name":"role","type":"bytes32"},{"internalType":"address","name":"account","type":"address"}],"name":"revokeRole","outputs":[],"stateMutability":"nonpayable","type":"function"},{"inputs":[{"internalType":"uint256[]","name":"farmIds","type":"uint256[]"},{"internalType":"int16[]","name":"temperatures","type":"int16[]"},{"internalType":"uint16[]","name":"moistures","type":"uint16[]"},{"internalType":"uint16[]","name":"humidities","type":"uint16[]"}],"name":"submitBatch","outputs":[],"stateMutability":"nonpayable","type":"function"},{"inputs":[{"internalType":"uint256","name":"farmId","type":"uint256"},{"internalType":"int16","name":"temperature","type":"int16"},{"internalType":"uint16","name":"soilMoisture","type":"uint16"},{"internalType":"uint16","name":"humidity","type":"uint16"}],"name":"submitSensorData","outputs":[],"stateMutability":"nonpayable","type":"function"},{"inputs":[{"internalType":"uint256","name":"","type":"uint256"}],"name":"supplyChainStages","outputs":[{"internalType":"uint256","name":"productId","type":"uint256"},{"internalType":"string","name":"stage","type":"string"},{"internalType":"uint256","name":"timestamp","type":"uint256"},{"internalType":"address","name":"recorder","type":"address"},{"internalType":"string","name":"location","type":"string"},{"internalType":"bytes32","name":"linkedDataHash","type":"bytes32"}],"stateMutability":"view","type":"function"},{"inputs":[{"internalType":"bytes4","name":"interfaceId","type":"bytes4"}],"name":"supportsInterface","outputs":[{"internalType":"bool","name":"","type":"bool"}],"stateMutability":"view","type":"function"},{"inputs":[{"internalType":"uint256","name":"readingId","type":"uint256"}],"name":"verifyReading","outputs":[{"internalType":"bool","name":"valid","type":"bool"},{"internalType":"bytes32","name":"storedHash","type":"bytes32"}],"stateMutability":"view","type":"function"}],"evm":{"bytecode":{"linkReferences":{},"object":"60806040523480156200001157600080fd5b506200001f600033620000da565b506200004c7f48404ec5122cfef2c4b0b727fa211cfb1e815e1b19d5c56f7d3cc0c616120a2833620000da565b50620000797f7c6181838a71a779e445600d4c6ecbe16bacf2b3c5bda69c29fada66d1b645d133620000da565b50620000a67f7765bfe615aab9fb9a16bd4c5c9b353f39dae79ca7da86094b0a74ea8a89e59a33620000da565b50620000d37f9fdd832c63a06cff8edefff7231d8026fd177377608db1841f7c881716ea19bc33620000da565b5062000189565b6000828152602081815260408083206001600160a01b038516845290915281205460ff166200017f576000838152602081815260408083206001600160a01b03861684529091529020805460ff19166001179055620001363390565b6001600160a01b0316826001600160a01b0316847f2f8788117e7eff1d82e926ec794901d17c78024a50270940304540a733656f0d60405160405180910390a450600162000183565b5060005b92915050565b611f8380620001996000396000f3fe608060405234801561001057600080fd5b50600436106101cf5760003560e01c806388c3603511610104578063b0e26d70116100a2578063f24cb03411610071578063f24cb0341461047e578063f3943970146104a5578063faf1fba6146104cc578063fda7503b146104df57600080fd5b8063b0e26d70146103c5578063d547741f146103ec578063d5da886d146103ff578063f2410ef71461045957600080fd5b806391d14854116100de57806391d148541461036d578063a217fddf14610380578063a9bf741914610388578063aaf107521461039b57600080fd5b806388c360351461032f5780638e07dd94146103425780638ea768fe1461034a57600080fd5b806350f2aab3116101715780636ed713571161014b5780636ed71357146102f957806372067fe914610301578063776cce9014610314578063864b64851461031c57600080fd5b806350f2aab31461029f57806356c70ed6146102c657806358cfe812146102d957600080fd5b8063248a9ca3116101ad578063248a9ca3146102245780632f2ff15d1461025557806336568abe146102685780634688f7db1461027b57600080fd5b806301ffc9a7146101d45780630d8d976c146101fc5780630faa74e514610211575b600080fd5b6101e76101e2366004611955565b6104f2565b60405190151581526020015b60405180910390f35b61020f61020a3660046119d2565b610529565b005b61020f61021f366004611ad8565b610a24565b610247610232366004611b5a565b60009081526020819052604090206001015490565b6040519081526020016101f3565b61020f610263366004611b73565b610bb6565b61020f610276366004611b73565b610be1565b61028e610289366004611b5a565b610c19565b6040516101f3959493929190611bf5565b6102477f7765bfe615aab9fb9a16bd4c5c9b353f39dae79ca7da86094b0a74ea8a89e59a81565b6102476102d4366004611c39565b610d6b565b6102ec6102e7366004611b5a565b610d9c565b6040516101f39190611c5b565b600154610247565b6102ec61030f366004611b5a565b610dfe565b600354610247565b61020f61032a366004611cc8565b610e5e565b61020f61033d366004611ad8565b611155565b600254610247565b6101e7610358366004611b5a565b60046020526000908152604090205460ff1681565b6101e761037b366004611b73565b611307565b610247600081565b6102ec610396366004611b5a565b611330565b6103ae6103a9366004611b5a565b611390565b6040805192151583526020830191909152016101f3565b6102477f48404ec5122cfef2c4b0b727fa211cfb1e815e1b19d5c56f7d3cc0c616120a2881565b61020f6103fa366004611b73565b61145a565b61041261040d366004611b5a565b61147f565b604080519788526001600160a01b0390961660208801529486019390935260019190910b606085015261ffff90811660808501521660a083015260c082015260e0016101f3565b61046c610467366004611b5a565b6114e6565b6040516101f396959493929190611d15565b6102477f9fdd832c63a06cff8edefff7231d8026fd177377608db1841f7c881716ea19bc81565b6102477f7c6181838a71a779e445600d4c6ecbe16bacf2b3c5bda69c29fada66d1b645d181565b6102476104da366004611c39565b61164c565b6102476104ed366004611c39565b611668565b60006001600160e01b03198216637965db0b60e01b148061052357506301ffc9a760e01b6001600160e01b03198316145b92915050565b7f48404ec5122cfef2c4b0b727fa211cfb1e815e1b19d5c56f7d3cc0c616120a2861055381611684565b8786811415806105635750808514155b8061056e5750808314155b1561058c5760405163512509d360e11b815260040160405180910390fd5b60005b81811015610a17576103e88787838181106105ac576105ac611d6a565b90506020020160208101906105c19190611d80565b61ffff1611806105fc57506103e88585838181106105e1576105e1611d6a565b90506020020160208101906105f69190611d80565b61ffff16115b1561061a5760405163043e24f760e51b815260040160405180910390fd5b600042338d8d8581811061063057610630611d6a565b905060200201358c8c8681811061064957610649611d6a565b905060200201602081019061065e9190611d9b565b8b8b8781811061067057610670611d6a565b90506020020160208101906106859190611d80565b8a8a8881811061069757610697611d6a565b90506020020160208101906106ac9190611d80565b87604051602001610714979695949392919096875260609590951b6bffffffffffffffffffffffff19166020870152603486019390935260f091821b6054860152811b6001600160f01b0319908116605686015291901b166058830152605a820152607a0190565b60408051601f1981840301815291815281516020928301206000818152600490935291205490915060ff161561075d57604051632ca15f0960e01b815260040160405180910390fd5b600081815260046020908152604091829020805460ff191660019081179091558054835160e08101855242815233938101939093529290919081018f8f878181106107aa576107aa611d6a565b9050602002013581526020018d8d878181106107c8576107c8611d6a565b90506020020160208101906107dd9190611d9b565b60010b81526020018b8b878181106107f7576107f7611d6a565b905060200201602081019061080c9190611d80565b61ffff16815260200189898781811061082757610827611d6a565b905060200201602081019061083c9190611d80565b61ffff908116825260209182018690528354600181810186556000958652838620855160059384029091019081559385015190840180546001600160a01b039092166001600160a01b0319909216919091179055604084015160028401556060840151600384018054608087015160a088015186166401000000000265ffff0000000019918716620100000263ffffffff19909316949096169390931717919091169290921790915560c090920151600490910155908e8e8681811061090457610904611d6a565b602090810292909201358352508181019290925260400160009081208054600181018255908252919020018190558c8c8481811061094457610944611d6a565b90506020020135336001600160a01b0316827fd1ffbc628ab31d410540a5216a77617b6437dd8315e6d6eb848dc25b4825e4004260405161098791815260200190565b60405180910390a4610a0d818c8c868181106109a5576109a5611d6a565b90506020020160208101906109ba9190611d9b565b8b8b878181106109cc576109cc611d6a565b90506020020160208101906109e19190611d80565b8a8a888181106109f3576109f3611d6a565b9050602002016020810190610a089190611d80565b611691565b505060010161058f565b5050505050505050505050565b7f7c6181838a71a779e445600d4c6ecbe16bacf2b3c5bda69c29fada66d1b645d1610a4e81611684565b6000600280549050905060026040518060a001604052808a815260200189898080601f0160208091040260200160405190810160405280939291908181526020018383808284376000920191909152505050908252504260208083019190915260408051601f8a01839004830281018301825289815292019190899089908190840183828082843760009201829052509385525050506020918201879052835460018181018655948252908290208351600590920201908155908201519192909190820190610b1d9082611e54565b506040820151600282015560608201516003820190610b3c9082611e54565b506080919091015160049091015560008881526006602090815260408083208054600181018255908452919092200182905551889082907fb414845a4cb1995a4700e6ebfd4967cd28d1ab8c31461aa6da72fefc4cd720a690610ba4908b908b904290611f14565b60405180910390a35050505050505050565b600082815260208190526040902060010154610bd181611684565b610bdb8383611817565b50505050565b6001600160a01b0381163314610c0a5760405163334bd91960e11b815260040160405180910390fd5b610c1482826118a9565b505050565b60028181548110610c2957600080fd5b60009182526020909120600590910201805460018201805491935090610c4e90611dcc565b80601f0160208091040260200160405190810160405280929190818152602001828054610c7a90611dcc565b8015610cc75780601f10610c9c57610100808354040283529160200191610cc7565b820191906000526020600020905b815481529060010190602001808311610caa57829003601f168201915b505050505090806002015490806003018054610ce290611dcc565b80601f0160208091040260200160405190810160405280929190818152602001828054610d0e90611dcc565b8015610d5b5780601f10610d3057610100808354040283529160200191610d5b565b820191906000526020600020905b815481529060010190602001808311610d3e57829003601f168201915b5050505050908060040154905085565b60076020528160005260406000208181548110610d8757600080fd5b90600052602060002001600091509150505481565b600081815260056020908152604091829020805483518184028101840190945280845260609392830182828015610df257602002820191906000526020600020905b815481526020019060010190808311610dde575b50505050509050919050565b600081815260076020908152604091829020805483518184028101840190945280845260609392830182828015610df25760200282019190600052602060002090815481526020019060010190808311610dde5750505050509050919050565b7f48404ec5122cfef2c4b0b727fa211cfb1e815e1b19d5c56f7d3cc0c616120a28610e8881611684565b6103e88361ffff161180610ea157506103e88261ffff16115b15610ebf5760405163043e24f760e51b815260040160405180910390fd5b604080514260208201526bffffffffffffffffffffffff193360601b16918101919091526054810186905260f085811b60748301526001600160f01b031985821b811660768401529084901b166078820152600090607a0160408051601f1981840301815291815281516020928301206000818152600490935291205490915060ff1615610f6057604051632ca15f0960e01b815260040160405180910390fd5b60016004600083815260200190815260200160002060006101000a81548160ff0219169083151502179055506000600180549050905060016040518060e00160405280428152602001336001600160a01b031681526020018981526020018860010b81526020018761ffff1681526020018661ffff1681526020018481525090806001815401808255809150506001900390600052602060002090600502016000909190919091506000820151816000015560208201518160010160006101000a8154816001600160a01b0302191690836001600160a01b031602179055506040820151816002015560608201518160030160006101000a81548161ffff021916908360010b61ffff16021790555060808201518160030160026101000a81548161ffff021916908361ffff16021790555060a08201518160030160046101000a81548161ffff021916908361ffff16021790555060c0820151816004015550506005600088815260200190815260200160002081908060018154018082558091505060019003906000526020600020016000909190919091505586336001600160a01b0316827fd1ffbc628ab31d410540a5216a77617b6437dd8315e6d6eb848dc25b4825e4004260405161113891815260200190565b60405180910390a461114c81878787611691565b50505050505050565b7f9fdd832c63a06cff8edefff7231d8026fd177377608db1841f7c881716ea19bc61117f81611684565b6000600380549050905060036040518060c001604052808a815260200189898080601f01602080910402602001604051908101604052809392919081815260200183838082843760009201919091525050509082525042602080830191909152336040808401919091528051601f8a018390048302810183019091528881526060909201919089908990819084018382808284376000920182905250938552505050602091820187905283546001818101865594825290829020835160069092020190815590820151919290919082019061125a9082611e54565b506040820151600282015560608201516003820180546001600160a01b0319166001600160a01b039092169190911790556080820151600482019061129f9082611e54565b5060a0919091015160059091015560008881526007602090815260408083208054600181018255908452919092200182905551889082907f458336fd7c5948d16ae76ce225c87f858bd744b40d82ddc8272ed4eadeca651590610ba4908b908b904290611f14565b6000918252602082815260408084206001600160a01b0393909316845291905290205460ff1690565b600081815260066020908152604091829020805483518184028101840190945280845260609392830182828015610df25760200282019190600052602060002090815481526020019060010190808311610dde5750505050509050919050565b600154600090819083106113b75760405163447875bf60e11b815260040160405180910390fd5b6000600184815481106113cc576113cc611d6a565b600091825260208083206040805160e0810182526005909402909101805484526001808201546001600160a01b03168585015260028201548584015260038201549081900b606086015261ffff620100008204811660808701526401000000009091041660a085015260049081015460c09094018490528385529091529091205460ff169590945092505050565b60008281526020819052604090206001015461147581611684565b610bdb83836118a9565b6001818154811061148f57600080fd5b600091825260209091206005909102018054600180830154600284015460038501546004909501549395506001600160a01b039091169390929181900b9161ffff6201000083048116926401000000009004169087565b600381815481106114f657600080fd5b6000918252602090912060069091020180546001820180549193509061151b90611dcc565b80601f016020809104026020016040519081016040528092919081815260200182805461154790611dcc565b80156115945780601f1061156957610100808354040283529160200191611594565b820191906000526020600020905b81548152906001019060200180831161157757829003601f168201915b5050505060028301546003840154600485018054949592946001600160a01b039092169350906115c390611dcc565b80601f01602080910402602001604051908101604052809291908181526020018280546115ef90611dcc565b801561163c5780601f106116115761010080835404028352916020019161163c565b820191906000526020600020905b81548152906001019060200180831161161f57829003601f168201915b5050505050908060050154905086565b60056020528160005260406000208181548110610d8757600080fd5b60066020528160005260406000208181548110610d8757600080fd5b61168e8133611914565b50565b6063198360010b12806116a857506102588360010b135b1561171657336001600160a01b0316847f95e8be25ce99d5e12cac2015ee3df3941fe93667bc5bb68c81b82a3f7ee9ed7460405161170d9060208082526013908201527245585452454d455f54454d504552415455524560681b604082015260600190565b60405180910390a35b60328261ffff16108061172e57506103b68261ffff16115b1561179e57336001600160a01b0316847f95e8be25ce99d5e12cac2015ee3df3941fe93667bc5bb68c81b82a3f7ee9ed746040516117959060208082526015908201527445585452454d455f534f494c5f4d4f49535455524560581b604082015260600190565b60405180910390a35b6103b68161ffff161115610bdb57336001600160a01b0316847f95e8be25ce99d5e12cac2015ee3df3941fe93667bc5bb68c81b82a3f7ee9ed746040516118099060208082526010908201526f45585452454d455f48554d494449545960801b604082015260600190565b60405180910390a350505050565b60006118238383611307565b6118a1576000838152602081815260408083206001600160a01b03861684529091529020805460ff191660011790556118593390565b6001600160a01b0316826001600160a01b0316847f2f8788117e7eff1d82e926ec794901d17c78024a50270940304540a733656f0d60405160405180910390a4506001610523565b506000610523565b60006118b58383611307565b156118a1576000838152602081815260408083206001600160a01b0386168085529252808320805460ff1916905551339286917ff6391f5c32d9c69d2a47ea670b442974b53935d1edc7fd64eb21e047a839171b9190a4506001610523565b61191e8282611307565b6119515760405163e2517d3f60e01b81526001600160a01b03821660048201526024810183905260440160405180910390fd5b5050565b60006020828403121561196757600080fd5b81356001600160e01b03198116811461197f57600080fd5b9392505050565b60008083601f84011261199857600080fd5b50813567ffffffffffffffff8111156119b057600080fd5b6020830191508360208260051b85010111156119cb57600080fd5b9250929050565b6000806000806000806000806080898b0312156119ee57600080fd5b883567ffffffffffffffff80821115611a0657600080fd5b611a128c838d01611986565b909a50985060208b0135915080821115611a2b57600080fd5b611a378c838d01611986565b909850965060408b0135915080821115611a5057600080fd5b611a5c8c838d01611986565b909650945060608b0135915080821115611a7557600080fd5b50611a828b828c01611986565b999c989b5096995094979396929594505050565b60008083601f840112611aa857600080fd5b50813567ffffffffffffffff811115611ac057600080fd5b6020830191508360208285010111156119cb57600080fd5b60008060008060008060808789031215611af157600080fd5b86359550602087013567ffffffffffffffff80821115611b1057600080fd5b611b1c8a838b01611a96565b90975095506040890135915080821115611b3557600080fd5b50611b4289828a01611a96565b979a9699509497949695606090950135949350505050565b600060208284031215611b6c57600080fd5b5035919050565b60008060408385031215611b8657600080fd5b8235915060208301356001600160a01b0381168114611ba457600080fd5b809150509250929050565b6000815180845260005b81811015611bd557602081850181015186830182015201611bb9565b506000602082860101526020601f19601f83011685010191505092915050565b85815260a060208201526000611c0e60a0830187611baf565b8560408401528281036060840152611c268186611baf565b9150508260808301529695505050505050565b60008060408385031215611c4c57600080fd5b50508035926020909101359150565b6020808252825182820181905260009190848201906040850190845b81811015611c9357835183529284019291840191600101611c77565b50909695505050505050565b8035600181900b8114611cb157600080fd5b919050565b803561ffff81168114611cb157600080fd5b60008060008060808587031215611cde57600080fd5b84359350611cee60208601611c9f565b9250611cfc60408601611cb6565b9150611d0a60608601611cb6565b905092959194509250565b86815260c060208201526000611d2e60c0830188611baf565b604083018790526001600160a01b03861660608401528281036080840152611d568186611baf565b9150508260a0830152979650505050505050565b634e487b7160e01b600052603260045260246000fd5b600060208284031215611d9257600080fd5b61197f82611cb6565b600060208284031215611dad57600080fd5b61197f82611c9f565b634e487b7160e01b600052604160045260246000fd5b600181811c90821680611de057607f821691505b602082108103611e0057634e487b7160e01b600052602260045260246000fd5b50919050565b601f821115610c1457600081815260208120601f850160051c81016020861015611e2d5750805b601f850160051c820191505b81811015611e4c57828155600101611e39565b505050505050565b815167ffffffffffffffff811115611e6e57611e6e611db6565b611e8281611e7c8454611dcc565b84611e06565b602080601f831160018114611eb75760008415611e9f5750858301515b600019600386901b1c1916600185901b178555611e4c565b600085815260208120601f198616915b82811015611ee657888601518255948401946001909101908401611ec7565b5085821015611f045787850151600019600388901b60f8161c191681555b5050505050600190811b01905550565b604081528260408201528284606083013760006060848301015260006060601f19601f860116830101905082602083015294935050505056fea26469706673582212200f93f0b0e1071efc57ef0f4c6360e4a926488e4ee83a61ded8dcc9e57fc3237964736f6c63430008140033","opcodes":"PUSH1 0x80 PUSH1 0x40 MSTORE CALLVALUE DUP1 ISZERO PUSH3 0x11 JUMPI PUSH1 0x0 DUP1 REVERT JUMPDEST POP PUSH3 0x1F PUSH1 0x0 CALLER PUSH3 0xDA JUMP JUMPDEST POP PUSH3 0x4C PUSH32 0x48404EC5122CFEF2C4B0B727FA211CFB1E815E1B19D5C56F7D3CC0C616120A28 CALLER PUSH3 0xDA JUMP JUMPDEST POP PUSH3 0x79 PUSH32 0x7C6181838A71A779E445600D4C6ECBE16BACF2B3C5BDA69C29FADA66D1B645D1 CALLER PUSH3 0xDA JUMP JUMPDEST POP PUSH3 0xA6 PUSH32 0x7765BFE615AAB9FB9A16BD4C5C9B353F39DAE79CA7DA86094B0A74EA8A89E59A CALLER PUSH3 0xDA JUMP JUMPDEST POP PUSH3 0xD3 PUSH32 0x9FDD832C63A06CFF8EDEFFF7231D8026FD177377608DB1841F7C881716EA19BC CALLER PUSH3 0xDA JUMP JUMPDEST POP PUSH3 0x189 JUMP JUMPDEST PUSH1 0x0 DUP3 DUP2 MSTORE PUSH1 0x20 DUP2 DUP2 MSTORE PUSH1 0x40 DUP1 DUP4 KECCAK256 PUSH1 0x1 PUSH1 0x1 PUSH1 0xA0 SHL SUB DUP6 AND DUP5 MSTORE SWAP1 SWAP2 MSTORE DUP2 KECCAK256 SLOAD PUSH1 0xFF AND PUSH3 0x17F JUMPI PUSH1 0x0 DUP4 DUP2 MSTORE PUSH1 0x20 DUP2 DUP2 MSTORE PUSH1 0x40 DUP1 DUP4 KECCAK256 PUSH1 0x1 PUSH1 0x1 PUSH1 0xA0 SHL SUB DUP7 AND DUP5 MSTORE SWAP1 SWAP2 MSTORE SWAP1 KECCAK256 DUP1 SLOAD PUSH1 0xFF NOT AND PUSH1 0x1 OR SWAP1 SSTORE PUSH3 0x136 CALLER SWAP1 JUMP JUMPDEST PUSH1 0x1 PUSH1 0x1 PUSH1 0xA0 SHL SUB AND DUP3 PUSH1 0x1 PUSH1 0x1 PUSH1 0xA0 SHL SUB AND DUP5 PUSH32 0x2F8788117E7EFF1D82E926EC794901D17C78024A50270940304540A733656F0D PUSH1 0x40 MLOAD PUSH1 0x40 MLOAD DUP1 SWAP2 SUB SWAP1 LOG4 POP PUSH1 0x1 PUSH3 0x183 JUMP JUMPDEST POP PUSH1 0x0 JUMPDEST SWAP3 SWAP2 POP POP JUMP JUMPDEST PUSH2 0x1F83 DUP1 PUSH3 0x199 PUSH1 0x0 CODECOPY PUSH1 0x0 RETURN INVALID PUSH1 0x80 PUSH1 0x40 MSTORE CALLVALUE DUP1 ISZERO PUSH2 0x10 JUMPI PUSH1 0x0 DUP1 REVERT JUMPDEST POP PUSH1 0x4 CALLDATASIZE LT PUSH2 0x1CF JUMPI PUSH1 0x0 CALLDATALOAD PUSH1 0xE0 SHR DUP1 PUSH4 0x88C36035 GT PUSH2 0x104 JUMPI DUP1 PUSH4 0xB0E26D70 GT PUSH2 0xA2 JUMPI DUP1 PUSH4 0xF24CB034 GT PUSH2 0x71 JUMPI DUP1 PUSH4 0xF24CB034 EQ PUSH2 0x47E JUMPI DUP1 PUSH4 0xF3943970 EQ PUSH2 0x4A5 JUMPI DUP1 PUSH4 0xFAF1FBA6 EQ PUSH2 0x4CC JUMPI DUP1 PUSH4 0xFDA7503B EQ PUSH2 0x4DF JUMPI PUSH1 0x0 DUP1 REVERT JUMPDEST DUP1 PUSH4 0xB0E26D70 EQ PUSH2 0x3C5 JUMPI DUP1 PUSH4 0xD547741F EQ PUSH2 0x3EC JUMPI DUP1 PUSH4 0xD5DA886D EQ PUSH2 0x3FF JUMPI DUP1 PUSH4 0xF2410EF7 EQ PUSH2 0x459 JUMPI PUSH1 0x0 DUP1 REVERT JUMPDEST DUP1 PUSH4 0x91D14854 GT PUSH2 0xDE JUMPI DUP1 PUSH4 0x91D14854 EQ PUSH2 0x36D JUMPI DUP1 PUSH4 0xA217FDDF EQ PUSH2 0x380 JUMPI DUP1 PUSH4 0xA9BF7419 EQ PUSH2 0x388 JUMPI DUP1 PUSH4 0xAAF10752 EQ PUSH2 0x39B JUMPI PUSH1 0x0 DUP1 REVERT JUMPDEST DUP1 PUSH4 0x88C36035 EQ PUSH2 0x32F JUMPI DUP1 PUSH4 0x8E07DD94 EQ PUSH2 0x342 JUMPI DUP1 PUSH4 0x8EA768FE EQ PUSH2 0x34A JUMPI PUSH1 0x0 DUP1 REVERT JUMPDEST DUP1 PUSH4 0x50F2AAB3 GT PUSH2 0x171 JUMPI DUP1 PUSH4 0x6ED71357 GT PUSH2 0x14B JUMPI DUP1 PUSH4 0x6ED71357 EQ PUSH2 0x2F9 JUMPI DUP1 PUSH4 0x72067FE9 EQ PUSH2 0x301 JUMPI DUP1 PUSH4 0x776CCE90 EQ PUSH2 0x314 JUMPI DUP1 PUSH4 0x864B6485 EQ PUSH2 0x31C JUMPI PUSH1 0x0 DUP1 REVERT JUMPDEST DUP1 PUSH4 0x50F2AAB3 EQ PUSH2 0x29F JUMPI DUP1 PUSH4 0x56C70ED6 EQ PUSH2 0x2C6 JUMPI DUP1 PUSH4 0x58CFE812 EQ PUSH2 0x2D9 JUMPI PUSH1 0x0 DUP1 REVERT JUMPDEST DUP1 PUSH4 0x248A9CA3 GT PUSH2 0x1AD JUMPI DUP1 PUSH4 0x248A9CA3 EQ PUSH2 0x224 JUMPI DUP1 PUSH4 0x2F2FF15D EQ PUSH2 0x255 JUMPI DUP1 PUSH4 0x36568ABE EQ PUSH2 0x268 JUMPI DUP1 PUSH4 0x4688F7DB EQ PUSH2 0x27B JUMPI PUSH1 0x0 DUP1 REVERT JUMPDEST DUP1 PUSH4 0x1FFC9A7 EQ PUSH2 0x1D4 JUMPI DUP1 PUSH4 0xD8D976C EQ PUSH2 0x1FC JUMPI DUP1 PUSH4 0xFAA74E5 EQ PUSH2 0x211 JUMPI JUMPDEST PUSH1 0x0 DUP1 REVERT JUMPDEST PUSH2 0x1E7 PUSH2 0x1E2 CALLDATASIZE PUSH1 0x4 PUSH2 0x1955 JUMP JUMPDEST PUSH2 0x4F2 JUMP JUMPDEST PUSH1 0x40 MLOAD SWAP1 ISZERO ISZERO DUP2 MSTORE PUSH1 0x20 ADD JUMPDEST PUSH1 0x40 MLOAD DUP1 SWAP2 SUB SWAP1 RETURN JUMPDEST PUSH2 0x20F PUSH2 0x20A CALLDATASIZE PUSH1 0x4 PUSH2 0x19D2 JUMP JUMPDEST PUSH2 0x529 JUMP JUMPDEST STOP JUMPDEST PUSH2 0x20F PUSH2 0x21F CALLDATASIZE PUSH1 0x4 PUSH2 0x1AD8 JUMP JUMPDEST PUSH2 0xA24 JUMP JUMPDEST PUSH2 0x247 PUSH2 0x232 CALLDATASIZE PUSH1 0x4 PUSH2 0x1B5A JUMP JUMPDEST PUSH1 0x0 SWAP1 DUP2 MSTORE PUSH1 0x20 DUP2 SWAP1 MSTORE PUSH1 0x40 SWAP1 KECCAK256 PUSH1 0x1 ADD SLOAD SWAP1 JUMP JUMPDEST PUSH1 0x40 MLOAD SWAP1 DUP2 MSTORE PUSH1 0x20 ADD PUSH2 0x1F3 JUMP JUMPDEST PUSH2 0x20F PUSH2 0x263 CALLDATASIZE PUSH1 0x4 PUSH2 0x1B73 JUMP JUMPDEST PUSH2 0xBB6 JUMP JUMPDEST PUSH2 0x20F PUSH2 0x276 CALLDATASIZE PUSH1 0x4 PUSH2 0x1B73 JUMP JUMPDEST PUSH2 0xBE1 JUMP JUMPDEST PUSH2 0x28E PUSH2 0x289 CALLDATASIZE PUSH1 0x4 PUSH2 0x1B5A JUMP JUMPDEST PUSH2 0xC19 JUMP JUMPDEST PUSH1 0x40 MLOAD PUSH2 0x1F3 SWAP6 SWAP5 SWAP4 SWAP3 SWAP2 SWAP1 PUSH2 0x1BF5 JUMP JUMPDEST PUSH2 0x247 PUSH32 0x7765BFE615AAB9FB9A16BD4C5C9B353F39DAE79CA7DA86094B0A74EA8A89E59A DUP2 JUMP JUMPDEST PUSH2 0x247 PUSH2 0x2D4 CALLDATASIZE PUSH1 0x4 PUSH2 0x1C39 JUMP JUMPDEST PUSH2 0xD6B JUMP JUMPDEST PUSH2 0x2EC PUSH2 0x2E7 CALLDATASIZE PUSH1 0x4 PUSH2 0x1B5A JUMP JUMPDEST PUSH2 0xD9C JUMP JUMPDEST PUSH1 0x40 MLOAD PUSH2 0x1F3 SWAP2 SWAP1 PUSH2 0x1C5B JUMP JUMPDEST PUSH1 0x1 SLOAD PUSH2 0x247 JUMP JUMPDEST PUSH2 0x2EC PUSH2 0x30F CALLDATASIZE PUSH1 0x4 PUSH2 0x1B5A JUMP JUMPDEST PUSH2 0xDFE JUMP JUMPDEST PUSH1 0x3 SLOAD PUSH2 0x247 JUMP JUMPDEST PUSH2 0x20F PUSH2 0x32A CALLDATASIZE PUSH1 0x4 PUSH2 0x1CC8 JUMP JUMPDEST PUSH2 0xE5E JUMP JUMPDEST PUSH2 0x20F PUSH2 0x33D CALLDATASIZE PUSH1 0x4 PUSH2 0x1AD8 JUMP JUMPDEST PUSH2 0x1155 JUMP JUMPDEST PUSH1 0x2 SLOAD PUSH2 0x247 JUMP JUMPDEST PUSH2 0x1E7 PUSH2 0x358 CALLDATASIZE PUSH1 0x4 PUSH2 0x1B5A JUMP JUMPDEST PUSH1 0x4 PUSH1 0x20 MSTORE PUSH1 0x0 SWAP1 DUP2 MSTORE PUSH1 0x40 SWAP1 KECCAK256 SLOAD PUSH1 0xFF AND DUP2 JUMP JUMPDEST PUSH2 0x1E7 PUSH2 0x37B CALLDATASIZE PUSH1 0x4 PUSH2 0x1B73 JUMP JUMPDEST PUSH2 0x1307 JUMP JUMPDEST PUSH2 0x247 PUSH1 0x0 DUP2 JUMP JUMPDEST PUSH2 0x2EC PUSH2 0x396 CALLDATASIZE PUSH1 0x4 PUSH2 0x1B5A JUMP JUMPDEST PUSH2 0x1330 JUMP JUMPDEST PUSH2 0x3AE PUSH2 0x3A9 CALLDATASIZE PUSH1 0x4 PUSH2 0x1B5A JUMP JUMPDEST PUSH2 0x1390 JUMP JUMPDEST PUSH1 0x40 DUP1 MLOAD SWAP3 ISZERO ISZERO DUP4 MSTORE PUSH1 0x20 DUP4 ADD SWAP2 SWAP1 SWAP2 MSTORE ADD PUSH2 0x1F3 JUMP JUMPDEST PUSH2 0x247 PUSH32 0x48404EC5122CFEF2C4B0B727FA211CFB1E815E1B19D5C56F7D3CC0C616120A28 DUP2 JUMP JUMPDEST PUSH2 0x20F PUSH2 0x3FA CALLDATASIZE PUSH1 0x4 PUSH2 0x1B73 JUMP JUMPDEST PUSH2 0x145A JUMP JUMPDEST PUSH2 0x412 PUSH2 0x40D CALLDATASIZE PUSH1 0x4 PUSH2 0x1B5A JUMP JUMPDEST PUSH2 0x147F JUMP JUMPDEST PUSH1 0x40 DUP1 MLOAD SWAP8 DUP9 MSTORE PUSH1 0x1 PUSH1 0x1 PUSH1 0xA0 SHL SUB SWAP1 SWAP7 AND PUSH1 0x20 DUP9 ADD MSTORE SWAP5 DUP7 ADD SWAP4 SWAP1 SWAP4 MSTORE PUSH1 0x1 SWAP2 SWAP1 SWAP2 SIGNEXTEND PUSH1 0x60 DUP6 ADD MSTORE PUSH2 0xFFFF SWAP1 DUP2 AND PUSH1 0x80 DUP6 ADD MSTORE AND PUSH1 0xA0 DUP4 ADD MSTORE PUSH1 0xC0 DUP3 ADD MSTORE PUSH1 0xE0 ADD PUSH2 0x1F3 JUMP JUMPDEST PUSH2 0x46C PUSH2 0x467 CALLDATASIZE PUSH1 0x4 PUSH2 0x1B5A JUMP JUMPDEST PUSH2 0x14E6 JUMP JUMPDEST PUSH1 0x40 MLOAD PUSH2 0x1F3 SWAP7 SWAP6 SWAP5 SWAP4 SWAP3 SWAP2 SWAP1 PUSH2 0x1D15 JUMP JUMPDEST PUSH2 0x247 PUSH32 0x9FDD832C63A06CFF8EDEFFF7231D8026FD177377608DB1841F7C881716EA19BC DUP2 JUMP JUMPDEST PUSH2 0x247 PUSH32 0x7C6181838A71A779E445600D4C6ECBE16BACF2B3C5BDA69C29FADA66D1B645D1 DUP2 JUMP JUMPDEST PUSH2 0x247 PUSH2 0x4DA CALLDATASIZE PUSH1 0x4 PUSH2 0x1C39 JUMP JUMPDEST PUSH2 0x164C JUMP JUMPDEST PUSH2 0x247 PUSH2 0x4ED CALLDATASIZE PUSH1 0x4 PUSH2 0x1C39 JUMP JUMPDEST PUSH2 0x1668 JUMP JUMPDEST PUSH1 0x0 PUSH1 0x1 PUSH1 0x1 PUSH1 0xE0 SHL SUB NOT DUP3 AND PUSH4 0x7965DB0B PUSH1 0xE0 SHL EQ DUP1 PUSH2 0x523 JUMPI POP PUSH4 0x1FFC9A7 PUSH1 0xE0 SHL PUSH1 0x1 PUSH1 0x1 PUSH1 0xE0 SHL SUB NOT DUP4 AND EQ JUMPDEST SWAP3 SWAP2 POP POP JUMP JUMPDEST PUSH32 0x48404EC5122CFEF2C4B0B727FA211CFB1E815E1B19D5C56F7D3CC0C616120A28 PUSH2 0x553 DUP2 PUSH2 0x1684 JUMP JUMPDEST DUP8 DUP7 DUP2 EQ ISZERO DUP1 PUSH2 0x563 JUMPI POP DUP1 DUP6 EQ ISZERO JUMPDEST DUP1 PUSH2 0x56E JUMPI POP DUP1 DUP4 EQ ISZERO JUMPDEST ISZERO PUSH2 0x58C JUMPI PUSH1 0x40 MLOAD PUSH4 0x512509D3 PUSH1 0xE1 SHL DUP2 MSTORE PUSH1 0x4 ADD PUSH1 0x40 MLOAD DUP1 SWAP2 SUB SWAP1 REVERT JUMPDEST PUSH1 0x0 JUMPDEST DUP2 DUP2 LT ISZERO PUSH2 0xA17 JUMPI PUSH2 0x3E8 DUP8 DUP8 DUP4 DUP2 DUP2 LT PUSH2 0x5AC JUMPI PUSH2 0x5AC PUSH2 0x1D6A JUMP JUMPDEST SWAP1 POP PUSH1 0x20 MUL ADD PUSH1 0x20 DUP2 ADD SWAP1 PUSH2 0x5C1 SWAP2 SWAP1 PUSH2 0x1D80 JUMP JUMPDEST PUSH2 0xFFFF AND GT DUP1 PUSH2 0x5FC JUMPI POP PUSH2 0x3E8 DUP6 DUP6 DUP4 DUP2 DUP2 LT PUSH2 0x5E1 JUMPI PUSH2 0x5E1 PUSH2 0x1D6A JUMP JUMPDEST SWAP1 POP PUSH1 0x20 MUL ADD PUSH1 0x20 DUP2 ADD SWAP1 PUSH2 0x5F6 SWAP2 SWAP1 PUSH2 0x1D80 JUMP JUMPDEST PUSH2 0xFFFF AND GT JUMPDEST ISZERO PUSH2 0x61A JUMPI PUSH1 0x40 MLOAD PUSH4 0x43E24F7 PUSH1 0xE5 SHL DUP2 MSTORE PUSH1 0x4 ADD PUSH1 0x40 MLOAD DUP1 SWAP2 SUB SWAP1 REVERT JUMPDEST PUSH1 0x0 TIMESTAMP CALLER DUP14 DUP14 DUP6 DUP2 DUP2 LT PUSH2 0x630 JUMPI PUSH2 0x630 PUSH2 0x1D6A JUMP JUMPDEST SWAP1 POP PUSH1 0x20 MUL ADD CALLDATALOAD DUP13 DUP13 DUP7 DUP2 DUP2 LT PUSH2 0x649 JUMPI PUSH2 0x649 PUSH2 0x1D6A JUMP JUMPDEST SWAP1 POP PUSH1 0x20 MUL ADD PUSH1 0x20 DUP2 ADD SWAP1 PUSH2 0x65E SWAP2 SWAP1 PUSH2 0x1D9B JUMP JUMPDEST DUP12 DUP12 DUP8 DUP2 DUP2 LT PUSH2 0x670 JUMPI PUSH2 0x670 PUSH2 0x1D6A JUMP JUMPDEST SWAP1 POP PUSH1 0x20 MUL ADD PUSH1 0x20 DUP2 ADD SWAP1 PUSH2 0x685 SWAP2 SWAP1 PUSH2 0x1D80 JUMP JUMPDEST DUP11 DUP11 DUP9 DUP2 DUP2 LT PUSH2 0x697 JUMPI PUSH2 0x697 PUSH2 0x1D6A JUMP JUMPDEST SWAP1 POP PUSH1 0x20 MUL ADD PUSH1 0x20 DUP2 ADD SWAP1 PUSH2 0x6AC SWAP2 SWAP1 PUSH2 0x1D80 JUMP JUMPDEST DUP8 PUSH1 0x40 MLOAD PUSH1 0x20 ADD PUSH2 0x714 SWAP8 SWAP7 SWAP6 SWAP5 SWAP4 SWAP3 SWAP2 SWAP1 SWAP7 DUP8 MSTORE PUSH1 0x60 SWAP6 SWAP1 SWAP6 SHL PUSH12 0xFFFFFFFFFFFFFFFFFFFFFFFF NOT AND PUSH1 0x20 DUP8 ADD MSTORE PUSH1 0x34 DUP7 ADD SWAP4 SWAP1 SWAP4 MSTORE PUSH1 0xF0 SWAP2 DUP3 SHL PUSH1 0x54 DUP7 ADD MSTORE DUP2 SHL PUSH1 0x1 PUSH1 0x1 PUSH1 0xF0 SHL SUB NOT SWAP1 DUP2 AND PUSH1 0x56 DUP7 ADD MSTORE SWAP2 SWAP1 SHL AND PUSH1 0x58 DUP4 ADD MSTORE PUSH1 0x5A DUP3 ADD MSTORE PUSH1 0x7A ADD SWAP1 JUMP JUMPDEST PUSH1 0x40 DUP1 MLOAD PUSH1 0x1F NOT DUP2 DUP5 SUB ADD DUP2 MSTORE SWAP2 DUP2 MSTORE DUP2 MLOAD PUSH1 0x20 SWAP3 DUP4 ADD KECCAK256 PUSH1 0x0 DUP2 DUP2 MSTORE PUSH1 0x4 SWAP1 SWAP4 MSTORE SWAP2 KECCAK256 SLOAD SWAP1 SWAP2 POP PUSH1 0xFF AND ISZERO PUSH2 0x75D JUMPI PUSH1 0x40 MLOAD PUSH4 0x2CA15F09 PUSH1 0xE0 SHL DUP2 MSTORE PUSH1 0x4 ADD PUSH1 0x40 MLOAD DUP1 SWAP2 SUB SWAP1 REVERT JUMPDEST PUSH1 0x0 DUP2 DUP2 MSTORE PUSH1 0x4 PUSH1 0x20 SWAP1 DUP2 MSTORE PUSH1 0x40 SWAP2 DUP3 SWAP1 KECCAK256 DUP1 SLOAD PUSH1 0xFF NOT AND PUSH1 0x1 SWAP1 DUP2 OR SWAP1 SWAP2 SSTORE DUP1 SLOAD DUP4 MLOAD PUSH1 0xE0 DUP2 ADD DUP6 MSTORE TIMESTAMP DUP2 MSTORE CALLER SWAP4 DUP2 ADD SWAP4 SWAP1 SWAP4 MSTORE SWAP3 SWAP1 SWAP2 SWAP1 DUP2 ADD DUP16 DUP16 DUP8 DUP2 DUP2 LT PUSH2 0x7AA JUMPI PUSH2 0x7AA PUSH2 0x1D6A JUMP JUMPDEST SWAP1 POP PUSH1 0x20 MUL ADD CALLDATALOAD DUP2 MSTORE PUSH1 0x20 ADD DUP14 DUP14 DUP8 DUP2 DUP2 LT PUSH2 0x7C8 JUMPI PUSH2 0x7C8 PUSH2 0x1D6A JUMP JUMPDEST SWAP1 POP PUSH1 0x20 MUL ADD PUSH1 0x20 DUP2 ADD SWAP1 PUSH2 0x7DD SWAP2 SWAP1 PUSH2 0x1D9B JUMP JUMPDEST PUSH1 0x1 SIGNEXTEND DUP2 MSTORE PUSH1 0x20 ADD DUP12 DUP12 DUP8 DUP2 DUP2 LT PUSH2 0x7F7 JUMPI PUSH2 0x7F7 PUSH2 0x1D6A JUMP JUMPDEST SWAP1 POP PUSH1 0x20 MUL ADD PUSH1 0x20 DUP2 ADD SWAP1 PUSH2 0x80C SWAP2 SWAP1 PUSH2 0x1D80 JUMP JUMPDEST PUSH2 0xFFFF AND DUP2 MSTORE PUSH1 0x20 ADD DUP10 DUP10 DUP8 DUP2 DUP2 LT PUSH2 0x827 JUMPI PUSH2 0x827 PUSH2 0x1D6A JUMP JUMPDEST SWAP1 POP PUSH1 0x20 MUL ADD PUSH1 0x20 DUP2 ADD SWAP1 PUSH2 0x83C SWAP2 SWAP1 PUSH2 0x1D80 JUMP JUMPDEST PUSH2 0xFFFF SWAP1 DUP2 AND DUP3 MSTORE PUSH1 0x20 SWAP2 DUP3 ADD DUP7 SWAP1 MSTORE DUP4 SLOAD PUSH1 0x1 DUP2 DUP2 ADD DUP7 SSTORE PUSH1 0x0 SWAP6 DUP7 MSTORE DUP4 DUP7 KECCAK256 DUP6 MLOAD PUSH1 0x5 SWAP4 DUP5 MUL SWAP1 SWAP2 ADD SWAP1 DUP2 SSTORE SWAP4 DUP6 ADD MLOAD SWAP1 DUP5 ADD DUP1 SLOAD PUSH1 0x1 PUSH1 0x1 PUSH1 0xA0 SHL SUB SWAP1 SWAP3 AND PUSH1 0x1 PUSH1 0x1 PUSH1 0xA0 SHL SUB NOT SWAP1 SWAP3 AND SWAP2 SWAP1 SWAP2 OR SWAP1 SSTORE PUSH1 0x40 DUP5 ADD MLOAD PUSH1 0x2 DUP5 ADD SSTORE PUSH1 0x60 DUP5 ADD MLOAD PUSH1 0x3 DUP5 ADD DUP1 SLOAD PUSH1 0x80 DUP8 ADD MLOAD PUSH1 0xA0 DUP9 ADD MLOAD DUP7 AND PUSH5 0x100000000 MUL PUSH6 0xFFFF00000000 NOT SWAP2 DUP8 AND PUSH3 0x10000 MUL PUSH4 0xFFFFFFFF NOT SWAP1 SWAP4 AND SWAP5 SWAP1 SWAP7 AND SWAP4 SWAP1 SWAP4 OR OR SWAP2 SWAP1 SWAP2 AND SWAP3 SWAP1 SWAP3 OR SWAP1 SWAP2 SSTORE PUSH1 0xC0 SWAP1 SWAP3 ADD MLOAD PUSH1 0x4 SWAP1 SWAP2 ADD SSTORE SWAP1 DUP15 DUP15 DUP7 DUP2 DUP2 LT PUSH2 0x904 JUMPI PUSH2 0x904 PUSH2 0x1D6A JUMP JUMPDEST PUSH1 0x20 SWAP1 DUP2 MUL SWAP3 SWAP1 SWAP3 ADD CALLDATALOAD DUP4 MSTORE POP DUP2 DUP2 ADD SWAP3 SWAP1 SWAP3 MSTORE PUSH1 0x40 ADD PUSH1 0x0 SWAP1 DUP2 KECCAK256 DUP1 SLOAD PUSH1 0x1 DUP2 ADD DUP3 SSTORE SWAP1 DUP3 MSTORE SWAP2 SWAP1 KECCAK256 ADD DUP2 SWAP1 SSTORE DUP13 DUP13 DUP5 DUP2 DUP2 LT PUSH2 0x944 JUMPI PUSH2 0x944 PUSH2 0x1D6A JUMP JUMPDEST SWAP1 POP PUSH1 0x20 MUL ADD CALLDATALOAD CALLER PUSH1 0x1 PUSH1 0x1 PUSH1 0xA0 SHL SUB AND DUP3 PUSH32 0xD1FFBC628AB31D410540A5216A77617B6437DD8315E6D6EB848DC25B4825E400 TIMESTAMP PUSH1 0x40 MLOAD PUSH2 0x987 SWAP2 DUP2 MSTORE PUSH1 0x20 ADD SWAP1 JUMP JUMPDEST PUSH1 0x40 MLOAD DUP1 SWAP2 SUB SWAP1 LOG4 PUSH2 0xA0D DUP2 DUP13 DUP13 DUP7 DUP2 DUP2 LT PUSH2 0x9A5 JUMPI PUSH2 0x9A5 PUSH2 0x1D6A JUMP JUMPDEST SWAP1 POP PUSH1 0x20 MUL ADD PUSH1 0x20 DUP2 ADD SWAP1 PUSH2 0x9BA SWAP2 SWAP1 PUSH2 0x1D9B JUMP JUMPDEST DUP12 DUP12 DUP8 DUP2 DUP2 LT PUSH2 0x9CC JUMPI PUSH2 0x9CC PUSH2 0x1D6A JUMP JUMPDEST SWAP1 POP PUSH1 0x20 MUL ADD PUSH1 0x20 DUP2 ADD SWAP1 PUSH2 0x9E1 SWAP2 SWAP1 PUSH2 0x1D80 JUMP JUMPDEST DUP11 DUP11 DUP9 DUP2 DUP2 LT PUSH2 0x9F3 JUMPI PUSH2 0x9F3 PUSH2 0x1D6A JUMP JUMPDEST SWAP1 POP PUSH1 0x20 MUL ADD PUSH1 0x20 DUP2 ADD SWAP1 PUSH2 0xA08 SWAP2 SWAP1 PUSH2 0x1D80 JUMP JUMPDEST PUSH2 0x1691 JUMP JUMPDEST POP POP PUSH1 0x1 ADD PUSH2 0x58F JUMP JUMPDEST POP POP POP POP POP POP POP POP POP POP POP JUMP JUMPDEST PUSH32 0x7C6181838A71A779E445600D4C6ECBE16BACF2B3C5BDA69C29FADA66D1B645D1 PUSH2 0xA4E DUP2 PUSH2 0x1684 JUMP JUMPDEST PUSH1 0x0 PUSH1 0x2 DUP1 SLOAD SWAP1 POP SWAP1 POP PUSH1 0x2 PUSH1 0x40 MLOAD DUP1 PUSH1 0xA0 ADD PUSH1 0x40 MSTORE DUP1 DUP11 DUP2 MSTORE PUSH1 0x20 ADD DUP10 DUP10 DUP1 DUP1 PUSH1 0x1F ADD PUSH1 0x20 DUP1 SWAP2 DIV MUL PUSH1 0x20 ADD PUSH1 0x40 MLOAD SWAP1 DUP2 ADD PUSH1 0x40 MSTORE DUP1 SWAP4 SWAP3 SWAP2 SWAP1 DUP2 DUP2 MSTORE PUSH1 0x20 ADD DUP4 DUP4 DUP1 DUP3 DUP5 CALLDATACOPY PUSH1 0x0 SWAP3 ADD SWAP2 SWAP1 SWAP2 MSTORE POP POP POP SWAP1 DUP3 MSTORE POP TIMESTAMP PUSH1 0x20 DUP1 DUP4 ADD SWAP2 SWAP1 SWAP2 MSTORE PUSH1 0x40 DUP1 MLOAD PUSH1 0x1F DUP11 ADD DUP4 SWAP1 DIV DUP4 MUL DUP2 ADD DUP4 ADD DUP3 MSTORE DUP10 DUP2 MSTORE SWAP3 ADD SWAP2 SWAP1 DUP10 SWAP1 DUP10 SWAP1 DUP2 SWAP1 DUP5 ADD DUP4 DUP3 DUP1 DUP3 DUP5 CALLDATACOPY PUSH1 0x0 SWAP3 ADD DUP3 SWAP1 MSTORE POP SWAP4 DUP6 MSTORE POP POP POP PUSH1 0x20 SWAP2 DUP3 ADD DUP8 SWAP1 MSTORE DUP4 SLOAD PUSH1 0x1 DUP2 DUP2 ADD DUP7 SSTORE SWAP5 DUP3 MSTORE SWAP1 DUP3 SWAP1 KECCAK256 DUP4 MLOAD PUSH1 0x5 SWAP1 SWAP3 MUL ADD SWAP1 DUP2 SSTORE SWAP1 DUP3 ADD MLOAD SWAP2 SWAP3 SWAP1 SWAP2 SWAP1 DUP3 ADD SWAP1 PUSH2 0xB1D SWAP1 DUP3 PUSH2 0x1E54 JUMP JUMPDEST POP PUSH1 0x40 DUP3 ADD MLOAD PUSH1 0x2 DUP3 ADD SSTORE PUSH1 0x60 DUP3 ADD MLOAD PUSH1 0x3 DUP3 ADD SWAP1 PUSH2 0xB3C SWAP1 DUP3 PUSH2 0x1E54 JUMP JUMPDEST POP PUSH1 0x80 SWAP2 SWAP1 SWAP2 ADD MLOAD PUSH1 0x4 SWAP1 SWAP2 ADD SSTORE PUSH1 0x0 DUP9 DUP2 MSTORE PUSH1 0x6 PUSH1 0x20 SWAP1 DUP2 MSTORE PUSH1 0x40 DUP1 DUP4 KECCAK256 DUP1 SLOAD PUSH1 0x1 DUP2 ADD DUP3 SSTORE SWAP1 DUP5 MSTORE SWAP2 SWAP1 SWAP3 KECCAK256 ADD DUP3 SWAP1 SSTORE MLOAD DUP9 SWAP1 DUP3 SWAP1 PUSH32 0xB414845A4CB1995A4700E6EBFD4967CD28D1AB8C31461AA6DA72FEFC4CD720A6 SWAP1 PUSH2 0xBA4 SWAP1 DUP12 SWAP1 DUP12 SWAP1 TIMESTAMP SWAP1 PUSH2 0x1F14 JUMP JUMPDEST PUSH1 0x40 MLOAD DUP1 SWAP2 SUB SWAP1 LOG3 POP POP POP POP POP POP POP POP JUMP JUMPDEST PUSH1 0x0 DUP3 DUP2 MSTORE PUSH1 0x20 DUP2 SWAP1 MSTORE PUSH1 0x40 SWAP1 KECCAK256 PUSH1 0x1 ADD SLOAD PUSH2 0xBD1 DUP2 PUSH2 0x1684 JUMP JUMPDEST PUSH2 0xBDB DUP4 DUP4 PUSH2 0x1817 JUMP JUMPDEST POP POP POP POP JUMP JUMPDEST PUSH1 0x1 PUSH1 0x1 PUSH1 0xA0 SHL SUB DUP2 AND CALLER EQ PUSH2 0xC0A JUMPI PUSH1 0x40 MLOAD PUSH4 0x334BD919 PUSH1 0xE1 SHL DUP2 MSTORE PUSH1 0x4 ADD PUSH1 0x40 MLOAD DUP1 SWAP2 SUB SWAP1 REVERT JUMPDEST PUSH2 0xC14 DUP3 DUP3 PUSH2 0x18A9 JUMP JUMPDEST POP POP POP JUMP JUMPDEST PUSH1 0x2 DUP2 DUP2 SLOAD DUP2 LT PUSH2 0xC29 JUMPI PUSH1 0x0 DUP1 REVERT JUMPDEST PUSH1 0x0 SWAP2 DUP3 MSTORE PUSH1 0x20 SWAP1 SWAP2 KECCAK256 PUSH1 0x5 SWAP1 SWAP2 MUL ADD DUP1 SLOAD PUSH1 0x1 DUP3 ADD DUP1 SLOAD SWAP2 SWAP4 POP SWAP1 PUSH2 0xC4E SWAP1 PUSH2 0x1DCC JUMP JUMPDEST DUP1 PUSH1 0x1F ADD PUSH1 0x20 DUP1 SWAP2 DIV MUL PUSH1 0x20 ADD PUSH1 0x40 MLOAD SWAP1 DUP2 ADD PUSH1 0x40 MSTORE DUP1 SWAP3 SWAP2 SWAP1 DUP2 DUP2 MSTORE PUSH1 0x20 ADD DUP3 DUP1 SLOAD PUSH2 0xC7A SWAP1 PUSH2 0x1DCC JUMP JUMPDEST DUP1 ISZERO PUSH2 0xCC7 JUMPI DUP1 PUSH1 0x1F LT PUSH2 0xC9C JUMPI PUSH2 0x100 DUP1 DUP4 SLOAD DIV MUL DUP4 MSTORE SWAP2 PUSH1 0x20 ADD SWAP2 PUSH2 0xCC7 JUMP JUMPDEST DUP3 ADD SWAP2 SWAP1 PUSH1 0x0 MSTORE PUSH1 0x20 PUSH1 0x0 KECCAK256 SWAP1 JUMPDEST DUP2 SLOAD DUP2 MSTORE SWAP1 PUSH1 0x1 ADD SWAP1 PUSH1 0x20 ADD DUP1 DUP4 GT PUSH2 0xCAA JUMPI DUP3 SWAP1 SUB PUSH1 0x1F AND DUP3 ADD SWAP2 JUMPDEST POP POP POP POP POP SWAP1 DUP1 PUSH1 0x2 ADD SLOAD SWAP1 DUP1 PUSH1 0x3 ADD DUP1 SLOAD PUSH2 0xCE2 SWAP1 PUSH2 0x1DCC JUMP JUMPDEST DUP1 PUSH1 0x1F ADD PUSH1 0x20 DUP1 SWAP2 DIV MUL PUSH1 0x20 ADD PUSH1 0x40 MLOAD SWAP1 DUP2 ADD PUSH1 0x40 MSTORE DUP1 SWAP3 SWAP2 SWAP1 DUP2 DUP2 MSTORE PUSH1 0x20 ADD DUP3 DUP1 SLOAD PUSH2 0xD0E SWAP1 PUSH2 0x1DCC JUMP JUMPDEST DUP1 ISZERO PUSH2 0xD5B JUMPI DUP1 PUSH1 0x1F LT PUSH2 0xD30 JUMPI PUSH2 0x100 DUP1 DUP4 SLOAD DIV MUL DUP4 MSTORE SWAP2 PUSH1 0x20 ADD SWAP2 PUSH2 0xD5B JUMP JUMPDEST DUP3 ADD SWAP2 SWAP1 PUSH1 0x0 MSTORE PUSH1 0x20 PUSH1 0x0 KECCAK256 SWAP1 JUMPDEST DUP2 SLOAD DUP2 MSTORE SWAP1 PUSH1 0x1 ADD SWAP1 PUSH1 0x20 ADD DUP1 DUP4 GT PUSH2 0xD3E JUMPI DUP3 SWAP1 SUB PUSH1 0x1F AND DUP3 ADD SWAP2 JUMPDEST POP POP POP POP POP SWAP1 DUP1 PUSH1 0x4 ADD SLOAD SWAP1 POP DUP6 JUMP JUMPDEST PUSH1 0x7 PUSH1 0x20 MSTORE DUP2 PUSH1 0x0 MSTORE PUSH1 0x40 PUSH1 0x0 KECCAK256 DUP2 DUP2 SLOAD DUP2 LT PUSH2 0xD87 JUMPI PUSH1 0x0 DUP1 REVERT JUMPDEST SWAP1 PUSH1 0x0 MSTORE PUSH1 0x20 PUSH1 0x0 KECCAK256 ADD PUSH1 0x0 SWAP2 POP SWAP2 POP POP SLOAD DUP2 JUMP JUMPDEST PUSH1 0x0 DUP2 DUP2 MSTORE PUSH1 0x5 PUSH1 0x20 SWAP1 DUP2 MSTORE PUSH1 0x40 SWAP2 DUP3 SWAP1 KECCAK256 DUP1 SLOAD DUP4 MLOAD DUP2 DUP5 MUL DUP2 ADD DUP5 ADD SWAP1 SWAP5 MSTORE DUP1 DUP5 MSTORE PUSH1 0x60 SWAP4 SWAP3 DUP4 ADD DUP3 DUP3 DUP1 ISZERO PUSH2 0xDF2 JUMPI PUSH1 0x20 MUL DUP3 ADD SWAP2 SWAP1 PUSH1 0x0 MSTORE PUSH1 0x20 PUSH1 0x0 KECCAK256 SWAP1 JUMPDEST DUP2 SLOAD DUP2 MSTORE PUSH1 0x20 ADD SWAP1 PUSH1 0x1 ADD SWAP1 DUP1 DUP4 GT PUSH2 0xDDE JUMPI JUMPDEST POP POP POP POP POP SWAP1 POP SWAP2 SWAP1 POP JUMP JUMPDEST PUSH1 0x0 DUP2 DUP2 MSTORE PUSH1 0x7 PUSH1 0x20 SWAP1 DUP2 MSTORE PUSH1 0x40 SWAP2 DUP3 SWAP1 KECCAK256 DUP1 SLOAD DUP4 MLOAD DUP2 DUP5 MUL DUP2 ADD DUP5 ADD SWAP1 SWAP5 MSTORE DUP1 DUP5 MSTORE PUSH1 0x60 SWAP4 SWAP3 DUP4 ADD DUP3 DUP3 DUP1 ISZERO PUSH2 0xDF2 JUMPI PUSH1 0x20 MUL DUP3 ADD SWAP2 SWAP1 PUSH1 0x0 MSTORE PUSH1 0x20 PUSH1 0x0 KECCAK256 SWAP1 DUP2 SLOAD DUP2 MSTORE PUSH1 0x20 ADD SWAP1 PUSH1 0x1 ADD SWAP1 DUP1 DUP4 GT PUSH2 0xDDE JUMPI POP POP POP POP POP SWAP1 POP SWAP2 SWAP1 POP JUMP JUMPDEST PUSH32 0x48404EC5122CFEF2C4B0B727FA211CFB1E815E1B19D5C56F7D3CC0C616120A28 PUSH2 0xE88 DUP2 PUSH2 0x1684 JUMP JUMPDEST PUSH2 0x3E8 DUP4 PUSH2 0xFFFF AND GT DUP1 PUSH2 0xEA1 JUMPI POP PUSH2 0x3E8 DUP3 PUSH2 0xFFFF AND GT JUMPDEST ISZERO PUSH2 0xEBF JUMPI PUSH1 0x40 MLOAD PUSH4 0x43E24F7 PUSH1 0xE5 SHL DUP2 MSTORE PUSH1 0x4 ADD PUSH1 0x40 MLOAD DUP1 SWAP2 SUB SWAP1 REVERT JUMPDEST PUSH1 0x40 DUP1 MLOAD TIMESTAMP PUSH1 0x20 DUP3 ADD MSTORE PUSH12 0xFFFFFFFFFFFFFFFFFFFFFFFF NOT CALLER PUSH1 0x60 SHL AND SWAP2 DUP2 ADD SWAP2 SWAP1 SWAP2 MSTORE PUSH1 0x54 DUP2 ADD DUP7 SWAP1 MSTORE PUSH1 0xF0 DUP6 DUP2 SHL PUSH1 0x74 DUP4 ADD MSTORE PUSH1 0x1 PUSH1 0x1 PUSH1 0xF0 SHL SUB NOT DUP6 DUP3 SHL DUP2 AND PUSH1 0x76 DUP5 ADD MSTORE SWAP1 DUP5 SWAP1 SHL AND PUSH1 0x78 DUP3 ADD MSTORE PUSH1 0x0 SWAP1 PUSH1 0x7A ADD PUSH1 0x40 DUP1 MLOAD PUSH1 0x1F NOT DUP2 DUP5 SUB ADD DUP2 MSTORE SWAP2 DUP2 MSTORE DUP2 MLOAD PUSH1 0x20 SWAP3 DUP4 ADD KECCAK256 PUSH1 0x0 DUP2 DUP2 MSTORE PUSH1 0x4 SWAP1 SWAP4 MSTORE SWAP2 KECCAK256 SLOAD SWAP1 SWAP2 POP PUSH1 0xFF AND ISZERO PUSH2 0xF60 JUMPI PUSH1 0x40 MLOAD PUSH4 0x2CA15F09 PUSH1 0xE0 SHL DUP2 MSTORE PUSH1 0x4 ADD PUSH1 0x40 MLOAD DUP1 SWAP2 SUB SWAP1 REVERT JUMPDEST PUSH1 0x1 PUSH1 0x4 PUSH1 0x0 DUP4 DUP2 MSTORE PUSH1 0x20 ADD SWAP1 DUP2 MSTORE PUSH1 0x20 ADD PUSH1 0x0 KECCAK256 PUSH1 0x0 PUSH2 0x100 EXP DUP2 SLOAD DUP2 PUSH1 0xFF MUL NOT AND SWAP1 DUP4 ISZERO ISZERO MUL OR SWAP1 SSTORE POP PUSH1 0x0 PUSH1 0x1 DUP1 SLOAD SWAP1 POP SWAP1 POP PUSH1 0x1 PUSH1 0x40 MLOAD DUP1 PUSH1 0xE0 ADD PUSH1 0x40 MSTORE DUP1 TIMESTAMP DUP2 MSTORE PUSH1 0x20 ADD CALLER PUSH1 0x1 PUSH1 0x1 PUSH1 0xA0 SHL SUB AND DUP2 MSTORE PUSH1 0x20 ADD DUP10 DUP2 MSTORE PUSH1 0x20 ADD DUP9 PUSH1 0x1 SIGNEXTEND DUP2 MSTORE PUSH1 0x20 ADD DUP8 PUSH2 0xFFFF AND DUP2 MSTORE PUSH1 0x20 ADD DUP7 PUSH2 0xFFFF AND DUP2 MSTORE PUSH1 0x20 ADD DUP5 DUP2 MSTORE POP SWAP1 DUP1 PUSH1 0x1 DUP2 SLOAD ADD DUP1 DUP3 SSTORE DUP1 SWAP2 POP POP PUSH1 0x1 SWAP1 SUB SWAP1 PUSH1 0x0 MSTORE PUSH1 0x20 PUSH1 0x0 KECCAK256 SWAP1 PUSH1 0x5 MUL ADD PUSH1 0x0 SWAP1 SWAP2 SWAP1 SWAP2 SWAP1 SWAP2 POP PUSH1 0x0 DUP3 ADD MLOAD DUP2 PUSH1 0x0 ADD SSTORE PUSH1 0x20 DUP3 ADD MLOAD DUP2 PUSH1 0x1 ADD PUSH1 0x0 PUSH2 0x100 EXP DUP2 SLOAD DUP2 PUSH1 0x1 PUSH1 0x1 PUSH1 0xA0 SHL SUB MUL NOT AND SWAP1 DUP4 PUSH1 0x1 PUSH1 0x1 PUSH1 0xA0 SHL SUB AND MUL OR SWAP1 SSTORE POP PUSH1 0x40 DUP3 ADD MLOAD DUP2 PUSH1 0x2 ADD SSTORE PUSH1 0x60 DUP3 ADD MLOAD DUP2 PUSH1 0x3 ADD PUSH1 0x0 PUSH2 0x100 EXP DUP2 SLOAD DUP2 PUSH2 0xFFFF MUL NOT AND SWAP1 DUP4 PUSH1 0x1 SIGNEXTEND PUSH2 0xFFFF AND MUL OR SWAP1 SSTORE POP PUSH1 0x80 DUP3 ADD MLOAD DUP2 PUSH1 0x3 ADD PUSH1 0x2 PUSH2 0x100 EXP DUP2 SLOAD DUP2 PUSH2 0xFFFF MUL NOT AND SWAP1 DUP4 PUSH2 0xFFFF AND MUL OR SWAP1 SSTORE POP PUSH1 0xA0 DUP3 ADD MLOAD DUP2 PUSH1 0x3 ADD PUSH1 0x4 PUSH2 0x100 EXP DUP2 SLOAD DUP2 PUSH2 0xFFFF MUL NOT AND SWAP1 DUP4 PUSH2 0xFFFF AND MUL OR SWAP1 SSTORE POP PUSH1 0xC0 DUP3 ADD MLOAD DUP2 PUSH1 0x4 ADD SSTORE POP POP PUSH1 0x5 PUSH1 0x0 DUP9 DUP2 MSTORE PUSH1 0x20 ADD SWAP1 DUP2 MSTORE PUSH1 0x20 ADD PUSH1 0x0 KECCAK256 DUP2 SWAP1 DUP1 PUSH1 0x1 DUP2 SLOAD ADD DUP1 DUP3 SSTORE DUP1 SWAP2 POP POP PUSH1 0x1 SWAP1 SUB SWAP1 PUSH1 0x0 MSTORE PUSH1 0x20 PUSH1 0x0 KECCAK256 ADD PUSH1 0x0 SWAP1 SWAP2 SWAP1 SWAP2 SWAP1 SWAP2 POP SSTORE DUP7 CALLER PUSH1 0x1 PUSH1 0x1 PUSH1 0xA0 SHL SUB AND DUP3 PUSH32 0xD1FFBC628AB31D410540A5216A77617B6437DD8315E6D6EB848DC25B4825E400 TIMESTAMP PUSH1 0x40 MLOAD PUSH2 0x1138 SWAP2 DUP2 MSTORE PUSH1 0x20 ADD SWAP1 JUMP JUMPDEST PUSH1 0x40 MLOAD DUP1 SWAP2 SUB SWAP1 LOG4 PUSH2 0x114C DUP2 DUP8 DUP8 DUP8 PUSH2 0x1691 JUMP JUMPDEST POP POP POP POP POP POP POP JUMP JUMPDEST PUSH32 0x9FDD832C63A06CFF8EDEFFF7231D8026FD177377608DB1841F7C881716EA19BC PUSH2 0x117F DUP2 PUSH2 0x1684 JUMP JUMPDEST PUSH1 0x0 PUSH1 0x3 DUP1 SLOAD SWAP1 POP SWAP1 POP PUSH1 0x3 PUSH1 0x40 MLOAD DUP1 PUSH1 0xC0 ADD PUSH1 0x40 MSTORE DUP1 DUP11 DUP2 MSTORE PUSH1 0x20 ADD DUP10 DUP10 DUP1 DUP1 PUSH1 0x1F ADD PUSH1 0x20 DUP1 SWAP2 DIV MUL PUSH1 0x20 ADD PUSH1 0x40 MLOAD SWAP1 DUP2 ADD PUSH1 0x40 MSTORE DUP1 SWAP4 SWAP3 SWAP2 SWAP1 DUP2 DUP2 MSTORE PUSH1 0x20 ADD DUP4 DUP4 DUP1 DUP3 DUP5 CALLDATACOPY PUSH1 0x0 SWAP3 ADD SWAP2 SWAP1 SWAP2 MSTORE POP POP POP SWAP1 DUP3 MSTORE POP TIMESTAMP PUSH1 0x20 DUP1 DUP4 ADD SWAP2 SWAP1 SWAP2 MSTORE CALLER PUSH1 0x40 DUP1 DUP5 ADD SWAP2 SWAP1 SWAP2 MSTORE DUP1 MLOAD PUSH1 0x1F DUP11 ADD DUP4 SWAP1 DIV DUP4 MUL DUP2 ADD DUP4 ADD SWAP1 SWAP2 MSTORE DUP9 DUP2 MSTORE PUSH1 0x60 SWAP1 SWAP3 ADD SWAP2 SWAP1 DUP10 SWAP1 DUP10 SWAP1 DUP2 SWAP1 DUP5 ADD DUP4 DUP3 DUP1 DUP3 DUP5 CALLDATACOPY PUSH1 0x0 SWAP3 ADD DUP3 SWAP1 MSTORE POP SWAP4 DUP6 MSTORE POP POP POP PUSH1 0x20 SWAP2 DUP3 ADD DUP8 SWAP1 MSTORE DUP4 SLOAD PUSH1 0x1 DUP2 DUP2 ADD DUP7 SSTORE SWAP5 DUP3 MSTORE SWAP1 DUP3 SWAP1 KECCAK256 DUP4 MLOAD PUSH1 0x6 SWAP1 SWAP3 MUL ADD SWAP1 DUP2 SSTORE SWAP1 DUP3 ADD MLOAD SWAP2 SWAP3 SWAP1 SWAP2 SWAP1 DUP3 ADD SWAP1 PUSH2 0x125A SWAP1 DUP3 PUSH2 0x1E54 JUMP JUMPDEST POP PUSH1 0x40 DUP3 ADD MLOAD PUSH1 0x2 DUP3 ADD SSTORE PUSH1 0x60 DUP3 ADD MLOAD PUSH1 0x3 DUP3 ADD DUP1 SLOAD PUSH1 0x1 PUSH1 0x1 PUSH1 0xA0 SHL SUB NOT AND PUSH1 0x1 PUSH1 0x1 PUSH1 0xA0 SHL SUB SWAP1 SWAP3 AND SWAP2 SWAP1 SWAP2 OR SWAP1 SSTORE PUSH1 0x80 DUP3 ADD MLOAD PUSH1 0x4 DUP3 ADD SWAP1 PUSH2 0x129F SWAP1 DUP3 PUSH2 0x1E54 JUMP JUMPDEST POP PUSH1 0xA0 SWAP2 SWAP1 SWAP2 ADD MLOAD PUSH1 0x5 SWAP1 SWAP2 ADD SSTORE PUSH1 0x0 DUP9 DUP2 MSTORE PUSH1 0x7 PUSH1 0x20 SWAP1 DUP2 MSTORE PUSH1 0x40 DUP1 DUP4 KECCAK256 DUP1 SLOAD PUSH1 0x1 DUP2 ADD DUP3 SSTORE SWAP1 DUP5 MSTORE SWAP2 SWAP1 SWAP3 KECCAK256 ADD DUP3 SWAP1 SSTORE MLOAD DUP9 SWAP1 DUP3 SWAP1 PUSH32 0x458336FD7C5948D16AE76CE225C87F858BD744B40D82DDC8272ED4EADECA6515 SWAP1 PUSH2 0xBA4 SWAP1 DUP12 SWAP1 DUP12 SWAP1 TIMESTAMP SWAP1 PUSH2 0x1F14 JUMP JUMPDEST PUSH1 0x0 SWAP2 DUP3 MSTORE PUSH1 0x20 DUP3 DUP2 MSTORE PUSH1 0x40 DUP1 DUP5 KECCAK256 PUSH1 0x1 PUSH1 0x1 PUSH1 0xA0 SHL SUB SWAP4 SWAP1 SWAP4 AND DUP5 MSTORE SWAP2 SWAP1 MSTORE SWAP1 KECCAK256 SLOAD PUSH1 0xFF AND SWAP1 JUMP JUMPDEST PUSH1 0x0 DUP2 DUP2 MSTORE PUSH1 0x6 PUSH1 0x20 SWAP1 DUP2 MSTORE PUSH1 0x40 SWAP2 DUP3 SWAP1 KECCAK256 DUP1 SLOAD DUP4 MLOAD DUP2 DUP5 MUL DUP2 ADD DUP5 ADD SWAP1 SWAP5 MSTORE DUP1 DUP5 MSTORE PUSH1 0x60 SWAP4 SWAP3 DUP4 ADD DUP3 DUP3 DUP1 ISZERO PUSH2 0xDF2 JUMPI PUSH1 0x20 MUL DUP3 ADD SWAP2 SWAP1 PUSH1 0x0 MSTORE PUSH1 0x20 PUSH1 0x0 KECCAK256 SWAP1 DUP2 SLOAD DUP2 MSTORE PUSH1 0x20 ADD SWAP1 PUSH1 0x1 ADD SWAP1 DUP1 DUP4 GT PUSH2 0xDDE JUMPI POP POP POP POP POP SWAP1 POP SWAP2 SWAP1 POP JUMP JUMPDEST PUSH1 0x1 SLOAD PUSH1 0x0 SWAP1 DUP2 SWAP1 DUP4 LT PUSH2 0x13B7 JUMPI PUSH1 0x40 MLOAD PUSH4 0x447875BF PUSH1 0xE1 SHL DUP2 MSTORE PUSH1 0x4 ADD PUSH1 0x40 MLOAD DUP1 SWAP2 SUB SWAP1 REVERT JUMPDEST PUSH1 0x0 PUSH1 0x1 DUP5 DUP2 SLOAD DUP2 LT PUSH2 0x13CC JUMPI PUSH2 0x13CC PUSH2 0x1D6A JUMP JUMPDEST PUSH1 0x0 SWAP2 DUP3 MSTORE PUSH1 0x20 DUP1 DUP4 KECCAK256 PUSH1 0x40 DUP1 MLOAD PUSH1 0xE0 DUP2 ADD DUP3 MSTORE PUSH1 0x5 SWAP1 SWAP5 MUL SWAP1 SWAP2 ADD DUP1 SLOAD DUP5 MSTORE PUSH1 0x1 DUP1 DUP3 ADD SLOAD PUSH1 0x1 PUSH1 0x1 PUSH1 0xA0 SHL SUB AND DUP6 DUP6 ADD MSTORE PUSH1 0x2 DUP3 ADD SLOAD DUP6 DUP5 ADD MSTORE PUSH1 0x3 DUP3 ADD SLOAD SWAP1 DUP2 SWAP1 SIGNEXTEND PUSH1 0x60 DUP7 ADD MSTORE PUSH2 0xFFFF PUSH3 0x10000 DUP3 DIV DUP2 AND PUSH1 0x80 DUP8 ADD MSTORE PUSH5 0x100000000 SWAP1 SWAP2 DIV AND PUSH1 0xA0 DUP6 ADD MSTORE PUSH1 0x4 SWAP1 DUP2 ADD SLOAD PUSH1 0xC0 SWAP1 SWAP5 ADD DUP5 SWAP1 MSTORE DUP4 DUP6 MSTORE SWAP1 SWAP2 MSTORE SWAP1 SWAP2 KECCAK256 SLOAD PUSH1 0xFF AND SWAP6 SWAP1 SWAP5 POP SWAP3 POP POP POP JUMP JUMPDEST PUSH1 0x0 DUP3 DUP2 MSTORE PUSH1 0x20 DUP2 SWAP1 MSTORE PUSH1 0x40 SWAP1 KECCAK256 PUSH1 0x1 ADD SLOAD PUSH2 0x1475 DUP2 PUSH2 0x1684 JUMP JUMPDEST PUSH2 0xBDB DUP4 DUP4 PUSH2 0x18A9 JUMP JUMPDEST PUSH1 0x1 DUP2 DUP2 SLOAD DUP2 LT PUSH2 0x148F JUMPI PUSH1 0x0 DUP1 REVERT JUMPDEST PUSH1 0x0 SWAP2 DUP3 MSTORE PUSH1 0x20 SWAP1 SWAP2 KECCAK256 PUSH1 0x5 SWAP1 SWAP2 MUL ADD DUP1 SLOAD PUSH1 0x1 DUP1 DUP4 ADD SLOAD PUSH1 0x2 DUP5 ADD SLOAD PUSH1 0x3 DUP6 ADD SLOAD PUSH1 0x4 SWAP1 SWAP6 ADD SLOAD SWAP4 SWAP6 POP PUSH1 0x1 PUSH1 0x1 PUSH1 0xA0 SHL SUB SWAP1 SWAP2 AND SWAP4 SWAP1 SWAP3 SWAP2 DUP2 SWAP1 SIGNEXTEND SWAP2 PUSH2 0xFFFF PUSH3 0x10000 DUP4 DIV DUP2 AND SWAP3 PUSH5 0x100000000 SWAP1 DIV AND SWAP1 DUP8 JUMP JUMPDEST PUSH1 0x3 DUP2 DUP2 SLOAD DUP2 LT PUSH2 0x14F6 JUMPI PUSH1 0x0 DUP1 REVERT JUMPDEST PUSH1 0x0 SWAP2 DUP3 MSTORE PUSH1 0x20 SWAP1 SWAP2 KECCAK256 PUSH1 0x6 SWAP1 SWAP2 MUL ADD DUP1 SLOAD PUSH1 0x1 DUP3 ADD DUP1 SLOAD SWAP2 SWAP4 POP SWAP1 PUSH2 0x151B SWAP1 PUSH2 0x1DCC JUMP JUMPDEST DUP1 PUSH1 0x1F ADD PUSH1 0x20 DUP1 SWAP2 DIV MUL PUSH1 0x20 ADD PUSH1 0x40 MLOAD SWAP1 DUP2 ADD PUSH1 0x40 MSTORE DUP1 SWAP3 SWAP2 SWAP1 DUP2 DUP2 MSTORE PUSH1 0x20 ADD DUP3 DUP1 SLOAD PUSH2 0x1547 SWAP1 PUSH2 0x1DCC JUMP JUMPDEST DUP1 ISZERO PUSH2 0x1594 JUMPI DUP1 PUSH1 0x1F LT PUSH2 0x1569 JUMPI PUSH2 0x100 DUP1 DUP4 SLOAD DIV MUL DUP4 MSTORE SWAP2 PUSH1 0x20 ADD SWAP2 PUSH2 0x1594 JUMP JUMPDEST DUP3 ADD SWAP2 SWAP1 PUSH1 0x0 MSTORE PUSH1 0x20 PUSH1 0x0 KECCAK256 SWAP1 JUMPDEST DUP2 SLOAD DUP2 MSTORE SWAP1 PUSH1 0x1 ADD SWAP1 PUSH1 0x20 ADD DUP1 DUP4 GT PUSH2 0x1577 JUMPI DUP3 SWAP1 SUB PUSH1 0x1F AND DUP3 ADD SWAP2 JUMPDEST POP POP POP POP PUSH1 0x2 DUP4 ADD SLOAD PUSH1 0x3 DUP5 ADD SLOAD PUSH1 0x4 DUP6 ADD DUP1 SLOAD SWAP5 SWAP6 SWAP3 SWAP5 PUSH1 0x1 PUSH1 0x1 PUSH1 0xA0 SHL SUB SWAP1 SWAP3 AND SWAP4 POP SWAP1 PUSH2 0x15C3 SWAP1 PUSH2 0x1DCC JUMP JUMPDEST DUP1 PUSH1 0x1F ADD PUSH1 0x20 DUP1 SWAP2 DIV MUL PUSH1 0x20 ADD PUSH1 0x40 MLOAD SWAP1 DUP2 ADD PUSH1 0x40 MSTORE DUP1 SWAP3 SWAP2 SWAP1 DUP2 DUP2 MSTORE PUSH1 0x20 ADD DUP3 DUP1 SLOAD PUSH2 0x15EF SWAP1 PUSH2 0x1DCC JUMP JUMPDEST DUP1 ISZERO PUSH2 0x163C JUMPI DUP1 PUSH1 0x1F LT PUSH2 0x1611 JUMPI PUSH2 0x100 DUP1 DUP4 SLOAD DIV MUL DUP4 MSTORE SWAP2 PUSH1 0x20 ADD SWAP2 PUSH2 0x163C JUMP JUMPDEST DUP3 ADD SWAP2 SWAP1 PUSH1 0x0 MSTORE PUSH1 0x20 PUSH1 0x0 KECCAK256 SWAP1 JUMPDEST DUP2 SLOAD DUP2 MSTORE SWAP1 PUSH1 0x1 ADD SWAP1 PUSH1 0x20 ADD DUP1 DUP4 GT PUSH2 0x161F JUMPI DUP3 SWAP1 SUB PUSH1 0x1F AND DUP3 ADD SWAP2 JUMPDEST POP POP POP POP POP SWAP1 DUP1 PUSH1 0x5 ADD SLOAD SWAP1 POP DUP7 JUMP JUMPDEST PUSH1 0x5 PUSH1 0x20 MSTORE DUP2 PUSH1 0x0 MSTORE PUSH1 0x40 PUSH1 0x0 KECCAK256 DUP2 DUP2 SLOAD DUP2 LT PUSH2 0xD87 JUMPI PUSH1 0x0 DUP1 REVERT JUMPDEST PUSH1 0x6 PUSH1 0x20 MSTORE DUP2 PUSH1 0x0 MSTORE PUSH1 0x40 PUSH1 0x0 KECCAK256 DUP2 DUP2 SLOAD DUP2 LT PUSH2 0xD87 JUMPI PUSH1 0x0 DUP1 REVERT JUMPDEST PUSH2 0x168E DUP2 CALLER PUSH2 0x1914 JUMP JUMPDEST POP JUMP JUMPDEST PUSH1 0x63 NOT DUP4 PUSH1 0x1 SIGNEXTEND SLT DUP1 PUSH2 0x16A8 JUMPI POP PUSH2 0x258 DUP4 PUSH1 0x1 SIGNEXTEND SGT JUMPDEST ISZERO PUSH2 0x1716 JUMPI CALLER PUSH1 0x1 PUSH1 0x1 PUSH1 0xA0 SHL SUB AND DUP5 PUSH32 0x95E8BE25CE99D5E12CAC2015EE3DF3941FE93667BC5BB68C81B82A3F7EE9ED74 PUSH1 0x40 MLOAD PUSH2 0x170D SWAP1 PUSH1 0x20 DUP1 DUP3 MSTORE PUSH1 0x13 SWAP1 DUP3 ADD MSTORE PUSH19 0x45585452454D455F54454D5045524154555245 PUSH1 0x68 SHL PUSH1 0x40 DUP3 ADD MSTORE PUSH1 0x60 ADD SWAP1 JUMP JUMPDEST PUSH1 0x40 MLOAD DUP1 SWAP2 SUB SWAP1 LOG3 JUMPDEST PUSH1 0x32 DUP3 PUSH2 0xFFFF AND LT DUP1 PUSH2 0x172E JUMPI POP PUSH2 0x3B6 DUP3 PUSH2 0xFFFF AND GT JUMPDEST ISZERO PUSH2 0x179E JUMPI CALLER PUSH1 0x1 PUSH1 0x1 PUSH1 0xA0 SHL SUB AND DUP5 PUSH32 0x95E8BE25CE99D5E12CAC2015EE3DF3941FE93667BC5BB68C81B82A3F7EE9ED74 PUSH1 0x40 MLOAD PUSH2 0x1795 SWAP1 PUSH1 0x20 DUP1 DUP3 MSTORE PUSH1 0x15 SWAP1 DUP3 ADD MSTORE PUSH21 0x45585452454D455F534F494C5F4D4F495354555245 PUSH1 0x58 SHL PUSH1 0x40 DUP3 ADD MSTORE PUSH1 0x60 ADD SWAP1 JUMP JUMPDEST PUSH1 0x40 MLOAD DUP1 SWAP2 SUB SWAP1 LOG3 JUMPDEST PUSH2 0x3B6 DUP2 PUSH2 0xFFFF AND GT ISZERO PUSH2 0xBDB JUMPI CALLER PUSH1 0x1 PUSH1 0x1 PUSH1 0xA0 SHL SUB AND DUP5 PUSH32 0x95E8BE25CE99D5E12CAC2015EE3DF3941FE93667BC5BB68C81B82A3F7EE9ED74 PUSH1 0x40 MLOAD PUSH2 0x1809 SWAP1 PUSH1 0x20 DUP1 DUP3 MSTORE PUSH1 0x10 SWAP1 DUP3 ADD MSTORE PUSH16 0x45585452454D455F48554D4944495459 PUSH1 0x80 SHL PUSH1 0x40 DUP3 ADD MSTORE PUSH1 0x60 ADD SWAP1 JUMP JUMPDEST PUSH1 0x40 MLOAD DUP1 SWAP2 SUB SWAP1 LOG3 POP POP POP POP JUMP JUMPDEST PUSH1 0x0 PUSH2 0x1823 DUP4 DUP4 PUSH2 0x1307 JUMP JUMPDEST PUSH2 0x18A1 JUMPI PUSH1 0x0 DUP4 DUP2 MSTORE PUSH1 0x20 DUP2 DUP2 MSTORE PUSH1 0x40 DUP1 DUP4 KECCAK256 PUSH1 0x1 PUSH1 0x1 PUSH1 0xA0 SHL SUB DUP7 AND DUP5 MSTORE SWAP1 SWAP2 MSTORE SWAP1 KECCAK256 DUP1 SLOAD PUSH1 0xFF NOT AND PUSH1 0x1 OR SWAP1 SSTORE PUSH2 0x1859 CALLER SWAP1 JUMP JUMPDEST PUSH1 0x1 PUSH1 0x1 PUSH1 0xA0 SHL SUB AND DUP3 PUSH1 0x1 PUSH1 0x1 PUSH1 0xA0 SHL SUB AND DUP5 PUSH32 0x2F8788117E7EFF1D82E926EC794901D17C78024A50270940304540A733656F0D PUSH1 0x40 MLOAD PUSH1 0x40 MLOAD DUP1 SWAP2 SUB SWAP1 LOG4 POP PUSH1 0x1 PUSH2 0x523 JUMP JUMPDEST POP PUSH1 0x0 PUSH2 0x523 JUMP JUMPDEST PUSH1 0x0 PUSH2 0x18B5 DUP4 DUP4 PUSH2 0x1307 JUMP JUMPDEST ISZERO PUSH2 0x18A1 JUMPI PUSH1 0x0 DUP4 DUP2 MSTORE PUSH1 0x20 DUP2 DUP2 MSTORE PUSH1 0x40 DUP1 DUP4 KECCAK256 PUSH1 0x1 PUSH1 0x1 PUSH1 0xA0 SHL SUB DUP7 AND DUP1 DUP6 MSTORE SWAP3 MSTORE DUP1 DUP4 KECCAK256 DUP1 SLOAD PUSH1 0xFF NOT AND SWAP1 SSTORE MLOAD CALLER SWAP3 DUP7 SWAP2 PUSH32 0xF6391F5C32D9C69D2A47EA670B442974B53935D1EDC7FD64EB21E047A839171B SWAP2 SWAP1 LOG4 POP PUSH1 0x1 PUSH2 0x523 JUMP JUMPDEST PUSH2 0x191E DUP3 DUP3 PUSH2 0x1307 JUMP JUMPDEST PUSH2 0x1951 JUMPI PUSH1 0x40 MLOAD PUSH4 0xE2517D3F PUSH1 0xE0 SHL DUP2 MSTORE PUSH1 0x1 PUSH1 0x1 PUSH1 0xA0 SHL SUB DUP3 AND PUSH1 0x4 DUP3 ADD MSTORE PUSH1 0x24 DUP2 ADD DUP4 SWAP1 MSTORE PUSH1 0x44 ADD PUSH1 0x40 MLOAD DUP1 SWAP2 SUB SWAP1 REVERT JUMPDEST POP POP JUMP JUMPDEST PUSH1 0x0 PUSH1 0x20 DUP3 DUP5 SUB SLT ISZERO PUSH2 0x1967 JUMPI PUSH1 0x0 DUP1 REVERT JUMPDEST DUP2 CALLDATALOAD PUSH1 0x1 PUSH1 0x1 PUSH1 0xE0 SHL SUB NOT DUP2 AND DUP2 EQ PUSH2 0x197F JUMPI PUSH1 0x0 DUP1 REVERT JUMPDEST SWAP4 SWAP3 POP POP POP JUMP JUMPDEST PUSH1 0x0 DUP1 DUP4 PUSH1 0x1F DUP5 ADD SLT PUSH2 0x1998 JUMPI PUSH1 0x0 DUP1 REVERT JUMPDEST POP DUP2 CALLDATALOAD PUSH8 0xFFFFFFFFFFFFFFFF DUP2 GT ISZERO PUSH2 0x19B0 JUMPI PUSH1 0x0 DUP1 REVERT JUMPDEST PUSH1 0x20 DUP4 ADD SWAP2 POP DUP4 PUSH1 0x20 DUP3 PUSH1 0x5 SHL DUP6 ADD ADD GT ISZERO PUSH2 0x19CB JUMPI PUSH1 0x0 DUP1 REVERT JUMPDEST SWAP3 POP SWAP3 SWAP1 POP JUMP JUMPDEST PUSH1 0x0 DUP1 PUSH1 0x0 DUP1 PUSH1 0x0 DUP1 PUSH1 0x0 DUP1 PUSH1 0x80 DUP10 DUP12 SUB SLT ISZERO PUSH2 0x19EE JUMPI PUSH1 0x0 DUP1 REVERT JUMPDEST DUP9 CALLDATALOAD PUSH8 0xFFFFFFFFFFFFFFFF DUP1 DUP3 GT ISZERO PUSH2 0x1A06 JUMPI PUSH1 0x0 DUP1 REVERT JUMPDEST PUSH2 0x1A12 DUP13 DUP4 DUP14 ADD PUSH2 0x1986 JUMP JUMPDEST SWAP1 SWAP11 POP SWAP9 POP PUSH1 0x20 DUP12 ADD CALLDATALOAD SWAP2 POP DUP1 DUP3 GT ISZERO PUSH2 0x1A2B JUMPI PUSH1 0x0 DUP1 REVERT JUMPDEST PUSH2 0x1A37 DUP13 DUP4 DUP14 ADD PUSH2 0x1986 JUMP JUMPDEST SWAP1 SWAP9 POP SWAP7 POP PUSH1 0x40 DUP12 ADD CALLDATALOAD SWAP2 POP DUP1 DUP3 GT ISZERO PUSH2 0x1A50 JUMPI PUSH1 0x0 DUP1 REVERT JUMPDEST PUSH2 0x1A5C DUP13 DUP4 DUP14 ADD PUSH2 0x1986 JUMP JUMPDEST SWAP1 SWAP7 POP SWAP5 POP PUSH1 0x60 DUP12 ADD CALLDATALOAD SWAP2 POP DUP1 DUP3 GT ISZERO PUSH2 0x1A75 JUMPI PUSH1 0x0 DUP1 REVERT JUMPDEST POP PUSH2 0x1A82 DUP12 DUP3 DUP13 ADD PUSH2 0x1986 JUMP JUMPDEST SWAP10 SWAP13 SWAP9 SWAP12 POP SWAP7 SWAP10 POP SWAP5 SWAP8 SWAP4 SWAP7 SWAP3 SWAP6 SWAP5 POP POP POP JUMP JUMPDEST PUSH1 0x0 DUP1 DUP4 PUSH1 0x1F DUP5 ADD SLT PUSH2 0x1AA8 JUMPI PUSH1 0x0 DUP1 REVERT JUMPDEST POP DUP2 CALLDATALOAD PUSH8 0xFFFFFFFFFFFFFFFF DUP2 GT ISZERO PUSH2 0x1AC0 JUMPI PUSH1 0x0 DUP1 REVERT JUMPDEST PUSH1 0x20 DUP4 ADD SWAP2 POP DUP4 PUSH1 0x20 DUP3 DUP6 ADD ADD GT ISZERO PUSH2 0x19CB JUMPI PUSH1 0x0 DUP1 REVERT JUMPDEST PUSH1 0x0 DUP1 PUSH1 0x0 DUP1 PUSH1 0x0 DUP1 PUSH1 0x80 DUP8 DUP10 SUB SLT ISZERO PUSH2 0x1AF1 JUMPI PUSH1 0x0 DUP1 REVERT JUMPDEST DUP7 CALLDATALOAD SWAP6 POP PUSH1 0x20 DUP8 ADD CALLDATALOAD PUSH8 0xFFFFFFFFFFFFFFFF DUP1 DUP3 GT ISZERO PUSH2 0x1B10 JUMPI PUSH1 0x0 DUP1 REVERT JUMPDEST PUSH2 0x1B1C DUP11 DUP4 DUP12 ADD PUSH2 0x1A96 JUMP JUMPDEST SWAP1 SWAP8 POP SWAP6 POP PUSH1 0x40 DUP10 ADD CALLDATALOAD SWAP2 POP DUP1 DUP3 GT ISZERO PUSH2 0x1B35 JUMPI PUSH1 0x0 DUP1 REVERT JUMPDEST POP PUSH2 0x1B42 DUP10 DUP3 DUP11 ADD PUSH2 0x1A96 JUMP JUMPDEST SWAP8 SWAP11 SWAP7 SWAP10 POP SWAP5 SWAP8 SWAP5 SWAP7 SWAP6 PUSH1 0x60 SWAP1 SWAP6 ADD CALLDATALOAD SWAP5 SWAP4 POP POP POP POP JUMP JUMPDEST PUSH1 0x0 PUSH1 0x20 DUP3 DUP5 SUB SLT ISZERO PUSH2 0x1B6C JUMPI PUSH1 0x0 DUP1 REVERT JUMPDEST POP CALLDATALOAD SWAP2 SWAP1 POP JUMP JUMPDEST PUSH1 0x0 DUP1 PUSH1 0x40 DUP4 DUP6 SUB SLT ISZERO PUSH2 0x1B86 JUMPI PUSH1 0x0 DUP1 REVERT JUMPDEST DUP3 CALLDATALOAD SWAP2 POP PUSH1 0x20 DUP4 ADD CALLDATALOAD PUSH1 0x1 PUSH1 0x1 PUSH1 0xA0 SHL SUB DUP2 AND DUP2 EQ PUSH2 0x1BA4 JUMPI PUSH1 0x0 DUP1 REVERT JUMPDEST DUP1 SWAP2 POP POP SWAP3 POP SWAP3 SWAP1 POP JUMP JUMPDEST PUSH1 0x0 DUP2 MLOAD DUP1 DUP5 MSTORE PUSH1 0x0 JUMPDEST DUP2 DUP2 LT ISZERO PUSH2 0x1BD5 JUMPI PUSH1 0x20 DUP2 DUP6 ADD DUP2 ADD MLOAD DUP7 DUP4 ADD DUP3 ADD MSTORE ADD PUSH2 0x1BB9 JUMP JUMPDEST POP PUSH1 0x0 PUSH1 0x20 DUP3 DUP7 ADD ADD MSTORE PUSH1 0x20 PUSH1 0x1F NOT PUSH1 0x1F DUP4 ADD AND DUP6 ADD ADD SWAP2 POP POP SWAP3 SWAP2 POP POP JUMP JUMPDEST DUP6 DUP2 MSTORE PUSH1 0xA0 PUSH1 0x20 DUP3 ADD MSTORE PUSH1 0x0 PUSH2 0x1C0E PUSH1 0xA0 DUP4 ADD DUP8 PUSH2 0x1BAF JUMP JUMPDEST DUP6 PUSH1 0x40 DUP5 ADD MSTORE DUP3 DUP2 SUB PUSH1 0x60 DUP5 ADD MSTORE PUSH2 0x1C26 DUP2 DUP7 PUSH2 0x1BAF JUMP JUMPDEST SWAP2 POP POP DUP3 PUSH1 0x80 DUP4 ADD MSTORE SWAP7 SWAP6 POP POP POP POP POP POP JUMP JUMPDEST PUSH1 0x0 DUP1 PUSH1 0x40 DUP4 DUP6 SUB SLT ISZERO PUSH2 0x1C4C JUMPI PUSH1 0x0 DUP1 REVERT JUMPDEST POP POP DUP1 CALLDATALOAD SWAP3 PUSH1 0x20 SWAP1 SWAP2 ADD CALLDATALOAD SWAP2 POP JUMP JUMPDEST PUSH1 0x20 DUP1 DUP3 MSTORE DUP3 MLOAD DUP3 DUP3 ADD DUP2 SWAP1 MSTORE PUSH1 0x0 SWAP2 SWAP1 DUP5 DUP3 ADD SWAP1 PUSH1 0x40 DUP6 ADD SWAP1 DUP5 JUMPDEST DUP2 DUP2 LT ISZERO PUSH2 0x1C93 JUMPI DUP4 MLOAD DUP4 MSTORE SWAP3 DUP5 ADD SWAP3 SWAP2 DUP5 ADD SWAP2 PUSH1 0x1 ADD PUSH2 0x1C77 JUMP JUMPDEST POP SWAP1 SWAP7 SWAP6 POP POP POP POP POP POP JUMP JUMPDEST DUP1 CALLDATALOAD PUSH1 0x1 DUP2 SWAP1 SIGNEXTEND DUP2 EQ PUSH2 0x1CB1 JUMPI PUSH1 0x0 DUP1 REVERT JUMPDEST SWAP2 SWAP1 POP JUMP JUMPDEST DUP1 CALLDATALOAD PUSH2 0xFFFF DUP2 AND DUP2 EQ PUSH2 0x1CB1 JUMPI PUSH1 0x0 DUP1 REVERT JUMPDEST PUSH1 0x0 DUP1 PUSH1 0x0 DUP1 PUSH1 0x80 DUP6 DUP8 SUB SLT ISZERO PUSH2 0x1CDE JUMPI PUSH1 0x0 DUP1 REVERT JUMPDEST DUP5 CALLDATALOAD SWAP4 POP PUSH2 0x1CEE PUSH1 0x20 DUP7 ADD PUSH2 0x1C9F JUMP JUMPDEST SWAP3 POP PUSH2 0x1CFC PUSH1 0x40 DUP7 ADD PUSH2 0x1CB6 JUMP JUMPDEST SWAP2 POP PUSH2 0x1D0A PUSH1 0x60 DUP7 ADD PUSH2 0x1CB6 JUMP JUMPDEST SWAP1 POP SWAP3 SWAP6 SWAP2 SWAP5 POP SWAP3 POP JUMP JUMPDEST DUP7 DUP2 MSTORE PUSH1 0xC0 PUSH1 0x20 DUP3 ADD MSTORE PUSH1 0x0 PUSH2 0x1D2E PUSH1 0xC0 DUP4 ADD DUP9 PUSH2 0x1BAF JUMP JUMPDEST PUSH1 0x40 DUP4 ADD DUP8 SWAP1 MSTORE PUSH1 0x1 PUSH1 0x1 PUSH1 0xA0 SHL SUB DUP7 AND PUSH1 0x60 DUP5 ADD MSTORE DUP3 DUP2 SUB PUSH1 0x80 DUP5 ADD MSTORE PUSH2 0x1D56 DUP2 DUP7 PUSH2 0x1BAF JUMP JUMPDEST SWAP2 POP POP DUP3 PUSH1 0xA0 DUP4 ADD MSTORE SWAP8 SWAP7 POP POP POP POP POP POP POP JUMP JUMPDEST PUSH4 0x4E487B71 PUSH1 0xE0 SHL PUSH1 0x0 MSTORE PUSH1 0x32 PUSH1 0x4 MSTORE PUSH1 0x24 PUSH1 0x0 REVERT JUMPDEST PUSH1 0x0 PUSH1 0x20 DUP3 DUP5 SUB SLT ISZERO PUSH2 0x1D92 JUMPI PUSH1 0x0 DUP1 REVERT JUMPDEST PUSH2 0x197F DUP3 PUSH2 0x1CB6 JUMP JUMPDEST PUSH1 0x0 PUSH1 0x20 DUP3 DUP5 SUB SLT ISZERO PUSH2 0x1DAD JUMPI PUSH1 0x0 DUP1 REVERT JUMPDEST PUSH2 0x197F DUP3 PUSH2 0x1C9F JUMP JUMPDEST PUSH4 0x4E487B71 PUSH1 0xE0 SHL PUSH1 0x0 MSTORE PUSH1 0x41 PUSH1 0x4 MSTORE PUSH1 0x24 PUSH1 0x0 REVERT JUMPDEST PUSH1 0x1 DUP2 DUP2 SHR SWAP1 DUP3 AND DUP1 PUSH2 0x1DE0 JUMPI PUSH1 0x7F DUP3 AND SWAP2 POP JUMPDEST PUSH1 0x20 DUP3 LT DUP2 SUB PUSH2 0x1E00 JUMPI PUSH4 0x4E487B71 PUSH1 0xE0 SHL PUSH1 0x0 MSTORE PUSH1 0x22 PUSH1 0x4 MSTORE PUSH1 0x24 PUSH1 0x0 REVERT JUMPDEST POP SWAP2 SWAP1 POP JUMP JUMPDEST PUSH1 0x1F DUP3 GT ISZERO PUSH2 0xC14 JUMPI PUSH1 0x0 DUP2 DUP2 MSTORE PUSH1 0x20 DUP2 KECCAK256 PUSH1 0x1F DUP6 ADD PUSH1 0x5 SHR DUP2 ADD PUSH1 0x20 DUP7 LT ISZERO PUSH2 0x1E2D JUMPI POP DUP1 JUMPDEST PUSH1 0x1F DUP6 ADD PUSH1 0x5 SHR DUP3 ADD SWAP2 POP JUMPDEST DUP2 DUP2 LT ISZERO PUSH2 0x1E4C JUMPI DUP3 DUP2 SSTORE PUSH1 0x1 ADD PUSH2 0x1E39 JUMP JUMPDEST POP POP POP POP POP POP JUMP JUMPDEST DUP2 MLOAD PUSH8 0xFFFFFFFFFFFFFFFF DUP2 GT ISZERO PUSH2 0x1E6E JUMPI PUSH2 0x1E6E PUSH2 0x1DB6 JUMP JUMPDEST PUSH2 0x1E82 DUP2 PUSH2 0x1E7C DUP5 SLOAD PUSH2 0x1DCC JUMP JUMPDEST DUP5 PUSH2 0x1E06 JUMP JUMPDEST PUSH1 0x20 DUP1 PUSH1 0x1F DUP4 GT PUSH1 0x1 DUP2 EQ PUSH2 0x1EB7 JUMPI PUSH1 0x0 DUP5 ISZERO PUSH2 0x1E9F JUMPI POP DUP6 DUP4 ADD MLOAD JUMPDEST PUSH1 0x0 NOT PUSH1 0x3 DUP7 SWAP1 SHL SHR NOT AND PUSH1 0x1 DUP6 SWAP1 SHL OR DUP6 SSTORE PUSH2 0x1E4C JUMP JUMPDEST PUSH1 0x0 DUP6 DUP2 MSTORE PUSH1 0x20 DUP2 KECCAK256 PUSH1 0x1F NOT DUP7 AND SWAP2 JUMPDEST DUP3 DUP2 LT ISZERO PUSH2 0x1EE6 JUMPI DUP9 DUP7 ADD MLOAD DUP3 SSTORE SWAP5 DUP5 ADD SWAP5 PUSH1 0x1 SWAP1 SWAP2 ADD SWAP1 DUP5 ADD PUSH2 0x1EC7 JUMP JUMPDEST POP DUP6 DUP3 LT ISZERO PUSH2 0x1F04 JUMPI DUP8 DUP6 ADD MLOAD PUSH1 0x0 NOT PUSH1 0x3 DUP9 SWAP1 SHL PUSH1 0xF8 AND SHR NOT AND DUP2 SSTORE JUMPDEST POP POP POP POP POP PUSH1 0x1 SWAP1 DUP2 SHL ADD SWAP1 SSTORE POP JUMP JUMPDEST PUSH1 0x40 DUP2 MSTORE DUP3 PUSH1 0x40 DUP3 ADD MSTORE DUP3 DUP5 PUSH1 0x60 DUP4 ADD CALLDATACOPY PUSH1 0x0 PUSH1 0x60 DUP5 DUP4 ADD ADD MSTORE PUSH1 0x0 PUSH1 0x60 PUSH1 0x1F NOT PUSH1 0x1F DUP7 ADD AND DUP4 ADD ADD SWAP1 POP DUP3 PUSH1 0x20 DUP4 ADD MSTORE SWAP5 SWAP4 POP POP POP POP JUMP INVALID LOG2 PUSH5 0x6970667358 0x22 SLT KECCAK256 0xF SWAP4 CREATE 0xB0 0xE1 SMOD 0x1E 0xFC JUMPI 0xEF 0xF 0x4C PUSH4 0x60E4A926 BASEFEE DUP15 0x4E 0xE8 GASPRICE PUSH2 0xDED8 0xDC 0xC9 0xE5 PUSH32 0xC3237964736F6C63430008140033000000000000000000000000000000000000 "},"methodIdentifiers":{"DEFAULT_ADMIN_ROLE()":"a217fddf","DEVICE_ROLE()":"b0e26d70","FARMER_ROLE()":"f3943970","RESEARCHER_ROLE()":"50f2aab3","SUPPLY_CHAIN_ROLE()":"f24cb034","cropEvents(uint256)":"4688f7db","dataHashes(bytes32)":"8ea768fe","farmToCropEvents(uint256,uint256)":"fda7503b","farmToReadings(uint256,uint256)":"faf1fba6","getCropEventsByFarm(uint256)":"a9bf7419","getReadingsByFarm(uint256)":"58cfe812","getRoleAdmin(bytes32)":"248a9ca3","getSupplyChainStages(uint256)":"72067fe9","getTotalCropEvents()":"8e07dd94","getTotalReadings()":"6ed71357","getTotalSupplyChainStages()":"776cce90","grantRole(bytes32,address)":"2f2ff15d","hasRole(bytes32,address)":"91d14854","productToStages(uint256,uint256)":"56c70ed6","readings(uint256)":"d5da886d","recordCropEvent(uint256,string,string,bytes32)":"0faa74e5","recordSupplyChainStage(uint256,string,string,bytes32)":"88c36035","renounceRole(bytes32,address)":"36568abe","revokeRole(bytes32,address)":"d547741f","submitBatch(uint256[],int16[],uint16[],uint16[])":"0d8d976c","submitSensorData(uint256,int16,uint16,uint16)":"864b6485","supplyChainStages(uint256)":"f2410ef7","supportsInterface(bytes4)":"01ffc9a7","verifyReading(uint256)":"aaf10752"}}}}}