{"abi":[{"type":"function","name":"inc","inputs":[],"outputs":[],"stateMutability":"nonpayable"},{"type":"function","name":"incBy","inputs":[{"name":"by","type":"uint256","internalType":"uint256"}],"outputs":[],"stateMutability":"nonpayable"},{"type":"function","name":"x","inputs":[],"outputs":[{"name":"","type":"uint256","internalType":"uint256"}],"stateMutability":"view"},{"type":"event","name":"Increment","inputs":[{"name":"by","type":"uint256","indexed":false,"internalType":"uint256"}],"anonymous":false}],"bytecode":{"object":"0x608060405234801561000f575f80fd5b506101ff8061001d5f395ff3fe608060405234801561000f575f80fd5b506004361061003f575f3560e01c80630c55699c14610043578063371303c01461005d57806370119d0614610067575b5f80fd5b61004b5f5481565b60405190815260200160405180910390f35b61006561007a565b005b61006561007536600461016d565b6100c3565b5f8054908061008883610198565b9091555050604051600181527f51af157c2eee40f68107a47a49c32fbbeb0a3c9e5cd37aa56e88e6be92368a819060200160405180910390a1565b5f81116101225760405162461bcd60e51b815260206004820152602360248201527f696e6342793a20696e6372656d656e742073686f756c6420626520706f73697460448201526269766560e81b606482015260840160405180910390fd5b805f8082825461013291906101b0565b90915550506040518181527f51af157c2eee40f68107a47a49c32fbbeb0a3c9e5cd37aa56e88e6be92368a819060200160405180910390a150565b5f6020828403121561017d575f80fd5b5035919050565b634e487b7160e01b5f52601160045260245ffd5b5f600182016101a9576101a9610184565b5060010190565b808201808211156101c3576101c3610184565b9291505056fea2646970667358221220814a4d788c84273a9123f4eccc9aaf79843e9cfaa41458e4da3c28a3409d24a064736f6c63430008140033","linkReferences":{}},"methodIdentifiers":{"inc()":"371303c0","incBy(uint256)":"70119d06","x()":"0c55699c"},"id":2}